:020000040800F2
:10000000B80D0020A5010008694D0008054800084A
:1000100000000000000000000000000000000000E0
:100020000000000000000000000000006D4D00080E
:1000300000000000000000006B4D00086F4D00083C
:10004000B7010008B7010008B7010008B7010008B0
:10005000B701000871280008B70100087B280008D4
:1000600000000000B7010008B7010008B701000850
:10007000B7010008B701000800000000B701000840
:1000800000000000114E0008000000000000000009
:10009000B701000800000000B7010008B701000820
:1000A000B7010008B7010008B7010008155400089F
:1000B000B70100086D4A00080000000000000000C1
:1000C00000F002F800F05EF80CA030C808382418E0
:1000D0002D18A246671EAB4654465D46AC4201D180
:1000E00000F050F87E460F3E0FCCB6460126334254
:1000F00000D0FB1AA246AB4633431847D460000039
:10010000F4600000103A02D378C878C1FAD85207D8
:1001100001D330C830C101D504680C6070470000BD
:100120000023002400250026103A01D378C1FBD813
:10013000520700D330C100D50B60704710B5662957
:1001400002D105F01BFF10BD642902D100F03CF97B
:1001500010BD732902D101F05DF910BD002010BD62
:100160001FB501F00DFA04000020002105F058FE33
:10017000401C60600020002105F03CFEE0601FBDD7
:1001800010B510BD01F08AFD1146FFF7E9FF05F03B
:1001900037FC02F013F803B4FFF7F2FF03BC02F0E0
:1001A000A5F800000748804707480047FEE7FEE73C
:1001B000FEE7FEE7FEE7FEE704480549054A064B71
:1001C000704700000D4E0008C1000008B80700206D
:1001D000B80D0020B8090020B8090020FEB505467A
:1001E00010460C46184373D0AE468C460020AD1A1C
:1001F00001469C4167D36646002701243D46B61A56
:100200009D4102D313463A462124654676462F0483
:10021000360C3E432D0CB61A9D4104D3150C1B041D
:100220002B4312041034654676462F06360A3E43A9
:100230002D0AB61A9D4104D3150E1B022B43120240
:100240000834654676462F0736093E432D09B61A0F
:100250009D4104D3150F1B012B431201241D65463C
:100260007646AF07B6083E43AD08B61A9D4104D3A3
:10027000950F9B002B439200A41C65467646EF0722
:1002800076083E436D08B61A9D411AD392185B4119
:10029000641C16E00018764665464941B71A9D4130
:1002A0000191009009D36046B11A98418E46844668
:1002B000009801990025401C6941DD0752082A4336
:1002C0005B08641EE6D57246634603B0F0BDFFE7E7
:1002D00000200146C046C0462A462346F5E70000F6
:1002E0000FB41CB5074B06AA7B44694600900598DD
:1002F00001F065F80020694601F074F81CBC08BCE8
:1003000004B01847F9100000F8B50E460446002066
:1003100020622046E1688847002829D0252802D09D
:100320006268A16820E0E168204600278847050050
:100330001ED028464138192802D80127FF0220354F
:100340003246204627602946FFF7F8FE002808D0ED
:10035000012804D0F61DF608F6000836D9E7361D48
:10036000D7E762682846A1689047206A401CCFE71B
:10037000206AF8BD70B50C460546012A05D02878DC
:10038000800600D5EA69002302E0012305E05B1C3A
:10039000934202D2E05C0028F9D1A869E618C01A9D
:1003A000A861286AC01828622846C046C04604E0F2
:1003B0006A682078A968641C9047B442F8D328463C
:1003C000C046C04670BD0000F7B50025752910680D
:1003D000009914A611D0C046C046002802DA404257
:1003E00011A608E0009909688A0701D50FA602E066
:1003F000490704D50EA6012501E0C046C046009F6E
:100400000024243704E001F05FF830313955641CD2
:100410000028F8D12B4632462146009800F068FDAE
:10042000FEBD0000000000002D0000002B000000B9
:1004300020000000401ECAB24178401C8A4202D00F
:100440000029F9D10020704730B505460B462A46F1
:100450001C781078521C5B1C002801D0A042F7D0F9
:10046000002C03D0002802D06D1CEFE7284630BDD9
:100470000022CBB20178401C994200D1421E0029D3
:10048000F8D110467047000030B5441C03E00178F5
:10049000401C00290DD08107F9D10B4BDD0104C8A8
:1004A000D11A91432940FAD0001B0A0603D0C01E7E
:1004B00030BD001B30BD0A0401D0801E30BD0902D2
:1004C000FCD0401E30BD00000101010101E004C06C
:1004D000091F0429FBD28B0701D50280801CC907A4
:1004E00000D00270704700290BD0C30702D0027001
:1004F000401C491E022904D3830702D50280801CB8
:10050000891EE3E70022EEE70022DFE7F8B50746A1
:100510000B4639461943890713D1164CE601042AC4
:100520000FD302CB0D1B8D43354202D102C0121FE7
:10053000F5E7CBB20370401C521E002B13D0090A02
:10054000F7E7002A14D01978521E5B1C0170401C7A
:10055000002908D0002A0BD01978521E5B1C0170AC
:10056000401C0029EDD1002A02D01146FFF7CAFF36
:100570003846F8BD01010101002203098B422CD34A
:10058000030A8B4211D300239C464EE003460B43E3
:100590003CD4002243088B4231D303098B421CD345
:1005A000030A8B4201D394463FE0C3098B4201D337
:1005B000CB01C01A524183098B4201D38B01C01A6F
:1005C000524143098B4201D34B01C01A52410309E6
:1005D0008B4201D30B01C01A5241C3088B4201D395
:1005E000CB00C01A524183088B4201D38B00C01A42
:1005F000524143088B4201D34B00C01A5241411A69
:1006000000D201465241104670475DE0CA0F00D04B
:100610004942031000D34042534000229C46030944
:100620008B422DD3030A8B4212D3FC22890112BACA
:10063000030A8B420CD3890192118B4208D38901A2
:1006400092118B4204D389013AD0921100E08909BA
:10065000C3098B4201D3CB01C01A524183098B429B
:1006600001D38B01C01A524143098B4201D34B0184
:10067000C01A524103098B4201D30B01C01A5241E7
:10068000C3088B4201D3CB00C01A524183088B426E
:1006900001D38B00C01A5241D9D243088B4201D3F7
:1006A0004B00C01A5241411A00D2014663465241E2
:1006B0005B10104601D34042002B00D549427047E1
:1006C00063465B1000D3404201B50020C046C046DF
:1006D00002BD7047704770470246C80FC00781438C
:1006E0004B0030B54B405B009B0D20D01923DB063F
:1006F000C91801231B05994220DB0324A407042504
:100700001346AB400BD3002B04D1EB0613409B00E8
:10071000E34204D401246407002312195941FF2342
:100720001B0599420BD2C9000143500F09E0CB02CF
:1007300004D501430803024305D0054830BDFF211D
:10074000C905084330BD084607210905884330BD67
:100750000000C07FF0B5F94D0C091E092C402E4059
:100760002F468BB0A7437DD0B543FCD0002E7AD066
:10077000002CFCD00D465D40ED0F2543AC1BFF2542
:10078000AD0464190894C502440DC9022143500DFB
:10079000DC0204430120C00701430443D20201915B
:1007A000200C110C00958C46010423468B430A91C2
:1007B00061460904E24D8A430991010A7D444919C1
:1007C0008039097805464D4301266D18F605751BDD
:1007D0006943C90C640B891C4C436418B5012C1B7C
:1007E000250C2E04B4434C434D43210C6918890950
:1007F0000591009DE90701D00121C90704912C460C
:1008000001996708CD072F434C08059DE10B4D4327
:100810002D0C29466646754302950D4645432E46E6
:10082000029D7D1BB44100950D465D4301942C0C47
:100830002F040D465543AE462D0C3D4302950394BF
:100840007546049C2D04641B049406D2029C039DEF
:10085000641C002675410395029401AC70CC009F86
:100860007D1B01E03EE162E1B4410904009507917E
:1008700001940599A4086143090C0C464443650B97
:10088000E7040C4666467443A646640B3C43039556
:1008900002947446049DE4042C1B049406D2029C2A
:1008A000039D641C002675410395029401AC70CC35
:1008B000009F7D1BB44101940C465C430095650F7D
:1008C000E7000C465443A646640F3C43039502944C
:1008D0007446049DE4002C1B049406D2029C039DE4
:1008E000641C002675410395029401AC70CC009FF6
:1008F0007D1BB441AE09AF06049DC900AD092F436D
:10090000049DA406AD060495079D3443691807911C
:10091000059DE10B4D432D0C294666467543029516
:100920000D4645432E46029D7D1BB44100950D4664
:100930005D4301942C0C2F040D465543AE462D0CFF
:100940003D43029503947546049C2D04641B049456
:1009500006D2029C039D641C0026754103950294F7
:1009600001AC70CC009F7D1BB44101948C050694B2
:10097000079C890A611800950791019C0599A408B4
:100980006143090C0D464543680BEF040D46644670
:1009900065436C0B3C43049FED047D1BAC4602D2C7
:1009A0000025641C6841009E019D371B8541084657
:1009B000584301950C46460FC5005443600F284329
:1009C0006546E4002C1B02D20025401C6E41019DAF
:1009D0003F1AB5412846BD09800628438446A00930
:1009E000BF064E020699A40676180743079D00200D
:1009F00068410A99079019430020099B00906046BE
:100A0000FF1913434041E20F64003A43A4460446F1
:100A1000D71A8C41A04203D90120009020463A46C3
:100A2000C70F941840416246D20F224364466400C7
:100A30000494009CBE466400D71AA446044602975C
:100A40008C417746002F01D1A04204D96046401C5A
:100A50008446029A2046C40FA64694184041049A40
:100A60000546D20F224364466400D31A8D41714675
:100A7000002901D1A84202D928461A46641C104315
:100A80000122002800D0164361020020079B89192B
:100A900004465C410223002C02DB491813466441E2
:100AA000089DCE0A2D145D194B056705E10A2C053A
:100AB0000D1908993E43C9076940002B08D093409F
:100AC00006D30022761C5141002B01D17608760016
:100AD0001C4A002D43DB154241D0AA433FD030468B
:100AE0000BB0F0BD06180D464D41174C7642AC4197
:100AF0001AD395181C465C41134A6D42A24113D388
:100B0000012252054C00D4420AD15C00D4420BD0E1
:100B10004B4002D592021143E2E749004908DFE762
:100B20005940C90FC90718E000200849D8E705480F
:100B300001420DD10342F7D0F2E700000000FF07A9
:100B40001D5800000000F07F0000E0FF0000F87F6B
:100B5000114859400143C01241400020C0E7012321
:100B6000089A9B069A4205DC032252078918C90F8E
:100B7000C907B5E7052252078918074A1143D2125F
:100B80005140ADE770B515461C4602460B46284657
:100B90002146FFF7DFFD70BDFFFFFF7F1F22030C23
:100BA00002D10F22000402D0030E03D004E0002083
:100BB000014670470002083A030F01D10001121FDD
:100BC000830F01D18000921E002801DB4000521EDD
:100BD000120551184205C012411810467047C10F46
:100BE000C90700D04042012292071143D6E70121F4
:100BF0008907D3E7F0B58B4C0F09254689B0BD4373
:100C00007BD01D092646AE43FAD00E465E402740F3
:100C1000F60F3E43254071D024012142FBD0FF2432
:100C2000AD19A4042D1B039501252D05DB02DB0A5C
:100C3000C9022B43C90A29431E010901040F130FDE
:100C4000050121431701880B820391432D098C462E
:100C5000A90B1E438A039543B30B9A0396433F099E
:100C6000BA0B9403A74302962E467E430497B646DA
:100C70004E19D7190C460196544305977E43371BEE
:100C80007646BF1B3601B646BE0B36190096764631
:100C9000BC043719009C01D3641C00946400002F2D
:100CA00001D001263443029E049F754366467E436D
:100CB0000496760034196E0034190094029C019E4B
:100CC0001C196643751BAE46069465464519059C7E
:100CD00005956C43594375460891691A0191049E24
:100CE00001465143A41B0491611A009C0791E1063F
:100CF00005D061090122114302E072E06EE0610952
:100D0000089D00272C0A2D066918049D7C412A0A9B
:100D10002D066918019D6241AC0DAD026D1854415C
:100D2000079A910D920255196141029A64465843FF
:100D30005443069B059A5A43121A131B9A0E9B01A1
:100D40005B187A41010B0005C3185141220A2006A5
:100D500044195A419A4200D2491C01204002814262
:100D600003D315230226F64302E014230326F64399
:100D70002020C51AA9401746AF40DA400A43204652
:100D80000399D8400914731819055118039A384368
:100D9000D2075140AC4009D00122944006D3002232
:100DA000401C5141002C01D1400840001E4A934292
:100DB00012D3012203989206904207DB05204007D8
:100DC00009181A480143C012414004E003204007BB
:100DD0000818C10FC907002009B0F0BD0020F107B5
:100DE000FAE705180C464C4111486D42A04115D355
:100DF00094181A465A410E48644290410ED301207D
:100E00004A004005824209D35A00824206D3594023
:100E1000C90F084AC90700201143DDE70020064931
:100E2000DAE700000000FF07FE070000FFFFFF7F7A
:100E30000000E0FF0000F07F0000F87F70B505467D
:100E40004800440D124B0020002C0AD0634008D00B
:100E50009A4206DA6642B24203DD12054019514158
:100E600070BD002C08D0002B09D0C90FC907002A7B
:100E7000F6DB084A114370BDC90FC90770BD28468B
:100E80000A03104302D00020034970BD284670BDFC
:100E9000FF0700000000F07F0000F87F0121C90576
:100EA0000123411842001B06D3185B0E0AD0C11063
:100EB0000722D206891840075242D14201D552007A
:100EC00089187047090208D50146002A03D0C10FCE
:100ED000C9070020704710467047420202D0002028
:100EE00002497047072109050143F4E70000F87F34
:100EF000FFB504460D4681B0243000902168880675
:100F000004D51022E0699143216000E00120A8424D
:100F100001DD471B00E000270498A1697A19101829
:100F2000081AA0612078C00602D42046C046C046F8
:100F3000002608E003986268A168805D9047206AF7
:100F4000401C761C206204988642F3DB2078C006A1
:100F50000AD52046C046C04606E06268A168302037
:100F60009047206A401C206238467F1E0028F4DC2F
:100F700007E000986268A168405D9047206A401CC5
:100F8000206228466D1E0028F3DC2046C046C0467D
:100F90002078000602D5022005B0F0BD0120FBE755
:100FA0007047FFB50C461E468FB003CA08900991E2
:100FB0004F007D0D00D16D1E002108460020C04667
:100FC0000321099A89050840002A03DA8200801863
:100FD00040080840800D01280A9002DD0020C0432F
:100FE0000A90089807430DD0EF48F0492818484365
:100FF0000714189800281DD07542291E1DDD0A9877
:1010000042421BE01898012802D00020302104E061
:101010000020F24305E02154401CB042FBDB304687
:101020000022189B002121540F998B600A604860B0
:1010300013B0F0BDBD1B6D1CDFE70A9A002900DA72
:1010400069420BA800F04CFB0BAB07CB03AB07C30B
:101050000899099800F0A8FB6B4607C30146D448DD
:101060000918002D00910ADDD14903980A9A4942D6
:10107000401803A90390684600F0BBFD07E0039900
:101080000A9A081803A90390684600F088FD6B4689
:1010900007C30004000C03D00020C043410800E057
:1010A0001046189A002A03D00022009215461EE02E
:1010B000751E05D400F068FA303262556D1EF9D500
:1010C00001220843079602D000227F1C04E020780A
:1010D000302801D100227F1E002A069789D01EE009
:1010E000112D07DA00F050FA303262556D1C0246BD
:1010F0000A43F5D1084303D00098002819D00EE028
:101100000021681E05E0235C625C63542254401E8B
:10111000491C8142F7DBA81B401E07950690079AE1
:1011200018990020A0540F98079B069A81600CC064
:101130007EE71126002018905BE7D21DF0B50D4622
:101140000446D10893B0C90003C90C900D9104F076
:101150009DF902460D98C00F01D02D2007E02068B0
:10116000810701D52B2002E04007C00F4001032A70
:101170000F9001D0072A05DB03462946204600F0E0
:1011800049FA0EE12078800601D5E76900E00627DC
:101190002846652D04D0662814D0672D69D12DE02E
:1011A0000020112F009001DB112300E07B1C0CAA12
:1011B00003A910A8FFF7F5FE1199002610987D1CD1
:1011C0000E9142E001203B460CAAC0070B90012083
:1011D000009003A910A8FFF7E4FE119D1298109942
:1011E000002600280E9501D1781C0D18781B02D41A
:1011F00046427D1C761EE81B00903AE0012F00DA83
:1012000001270020112F009001DD112300E03B4653
:101210000CAA03A910A8FFF7C4FE11993D46109827
:1012200000260E91217809070BD40E99A94200DA05
:101230000D4603A9012D04DD4A19203AD27F302A38
:1012400006D0B84201DA011D04DA012100910FE055
:101250006D1EEFE7002802DC86192D1A03E0411C01
:10126000A94200DD0D46801B401C00900120C007F4
:101270000B902078000705D40098A84202DB0020DC
:10128000C043009069460020C8720B98012102AF4C
:101290000337C907884225D0022010902B201190D7
:1012A0000B9800280BDA40420B902D20119006E09D
:1012B0000B9800F009F930317F1E0B9039701099AE
:1012C000481E00291090F3DC0B980028F0D11198EB
:1012D0007F1E38702088000501D5452000E065207C
:1012E0007F1E387001A8C01BC01D0B900F980028EE
:1012F00000D0012041190098C01709180B98081850
:10130000A169081A401EA0612078C00602D42046B8
:10131000C046C0460F98002805D06268A168904773
:10132000206A401C20622078C00625D52046C04691
:10133000C04621E0002E07DB0E98B04204DD03A872
:101340006268805DA16802E06268A1683020904711
:10135000206A761C401C20620098401E00280090E5
:101360000AD100F00DF9C06862680168405CA168AC
:101370009047206A401C206228466D1E0028D9DC58
:1013800007E062683878A1687F1C9047206A401C9B
:1013900020620B99481E00290B90F2DC2046C046C3
:1013A000C046032044E6000001FCFFFF104D000092
:1013B000E1DFFFFF01694A1C02610878704700B550
:1013C0008FB0029100210591054901937944039161
:1013D000114604906846FEF797FF0FB000BD00006D
:1013E000E5FFFFFF0A681070521C0A60704710B5D5
:1013F0004369002B02D0C046C04601E0FEF7BAFFA9
:10140000012010BD1278014624310A7000224A7072
:101410000122ECE711680022D243E8E70FB4002371
:1014200000B589B00CA900910B99CB60224B7B448D
:10143000224A7A440792042206930192204A029299
:10144000204A7A446B4608920246002004F09EFD32
:1014500009B008BC04B0184770B5064615460C46DE
:10146000324686B00020C04301900020049004A8BA
:10147000009102916946FFF7D1FF024604982118B6
:10148000002D05D0002801D0084600E02046286045
:10149000049800280DD0002A02DD0098884208D068
:1014A0003246081B6946019004A800940294FFF795
:1014B000B5FF06B070BD00006B020000870200009F
:1014C000FFFFFF7FBD01000001468008081A0209E6
:1014D0001018020A1018020C1018C0088200121806
:1014E0005200891A01E0401C0A390A29FBD27047D0
:1014F000F8B5224C4E00069DA6420AD8A64201D15C
:10150000002806D15E00A64203D8A6420AD1002ACE
:1015100008D00D24240425422CD02946002000F0B8
:1015200097FBF8BD0C461C430CD4994202D0EFF354
:101530000080F8BD904202D0EFF30080F8BDEFF3D9
:101540000080F8BD09242407E5008B4206D0EFF3A4
:101550000080A043591A06D2284304E0101A05D38C
:10156000EFF30080A04380F30088F8BDEFF3008024
:10157000A043F1E7009500F083FBF8BD0000E0FF19
:1015800000487047740700200B4670B50246890773
:101590008008084319469D08141AA941250908071F
:1015A000054308092C194841250A01060D43010A83
:1015B0002C194141200C0D0428430D0C00194D41FC
:1015C000002140194D41C00869070843E908840F0C
:1015D0008D002543840024184D4124196D41121BB0
:1015E000AB4107E00925ED432C115219634100245A
:1015F000401C61411C460A250026551BB441F1D20E
:1016000070BD10B5044600F069FB0068005DC007BE
:10161000C00F10BDF8B51F46044601230068DB0269
:10162000032601461840072A05DB002801D017A52C
:1016300006E017A504E0002801D016A500E016A5D5
:10164000102081432160A069C01E002FA06101D03D
:10165000401EA0612046C046C046002F09D0384633
:101660006268A1689047206A401C2062C01C20620A
:1016700006E0206AFAE762682878A1686D1C904746
:10168000761EF8D22046C046C046F8BD4E414E00F8
:101690006E616E00494E4600696E66004268002A1F
:1016A00008D001680B78491C002B03D0521E06C0DD
:1016B000184670470121C160881E70474268002AA1
:1016C0000BD0C3680168002B07D183688B4204D01C
:1016D000491E521C06C0002070470020C0437047BE
:1016E000F7B516468AB02F4878446C4603467C33DB
:1016F000C06F5A689B680DC42A487844763003ACA2
:101700000DC80DC43720C001081837211B30FEF763
:101710003DFF05460C46803D1B3C02D5644201203E
:1017200000E00020002709900FE0E0070BD00C201C
:101730001C497843794432464C394118684600F0D8
:101740002EFA6B4607C364107F1C002CEDD1154F99
:101750007F442C3F15E0E80711D02001C0190EC8C6
:101760000691089307920068F04201D198190890F9
:10177000324606A903A800F012FA03AB07C36D10A6
:10178000641C002DE7D1324669460998002803A859
:1017900002D000F02EFA01E000F001FA0A9B07C324
:1017A0000DB0F0BD74490000034640000A4610B574
:1017B000400D0BD00121C9070F24A40200191C03FE
:1017C00064082143540D2143D20207E00021012087
:1017D000F2E7D40F490021435200401E0029F8DAF5
:1017E000DB0FDB07184310BDFFB50D46144685B06F
:1017F0004868516803F024FE00910190A868A16830
:1018000003F01EFE02910390A868616803F018FEC1
:10181000029A12188242029201D2012000E00020B6
:10182000019A0B18D2180028019202D08A4202D9DC
:1018300003E08A4201D2012000E00020009908184C
:1018400000906868A16803F0FBFD029A12188242BA
:10185000029201D2012000E00020019A0B18D21858
:101860000028019202D08A4202D903E08A4201D2C2
:10187000012000E0002000990818009028682168E5
:1018800040004900400849084018EE49471814E054
:1018900001994000C90F0843009001980299400047
:1018A000C90F08430190029803994000C90F0843EB
:1018B0000290039840007F1E039000980028E7DA0A
:1018C0000898002801D0E04E00E00026B74228DA50
:1018D000F71BF806C00E15D0029B2021091A039AA7
:1018E0008B401A430392029A019BC2408B401A43D9
:1018F0000292019A009BC2408B4000991A430192C8
:10190000C14000917A110BD06B460320811A01D59A
:10191000002101E0890059588700401ED951F5D5B2
:10192000374603980299002800D001200143089807
:101930000291002808460CD0002800D0012001990F
:10194000019A490508430121D20AC902D202019233
:1019500000E001210E9B0122D207012B02D0002BB7
:1019600003D013E0002807D116E0904204D890423B
:101970000CD1019B0B4209D0019B5918019105D153
:101980000099491C009101D17F1C0092002803D0CE
:10199000102108460020C04628682168019B009A53
:1019A0004840C10F0598C90739430EC009B0F0BDC2
:1019B000FFB587B0099A08980899536892684068FB
:1019C000896896460022039317469446089A12683F
:1019D0005300099A5B081268520052089A1A9B4BEE
:1019E000D4180A9A002A01D0352200E0402206923B
:1019F0000022012315460492DB07059324E0002D05
:101A000005D175460346039E4D1BB34109D3754668
:101A10006646039B491B049D9841059B7519AC467E
:101A20005F4163463B4308D0059B049EDD07760873
:101A30002E435B080496059301E0521E641EC50FF9
:101A4000ED0749184041521C069B9A42D7DB002DF6
:101A500004D17546039A6B1A824101D203200CE02F
:101A6000039A0B466B404240134303D0014303D01B
:101A7000012002E0022000E00020614601910021E7
:101A8000009702910A99002905D06146400201435E
:101A90006D4B019102E08007002302909C423ADAEC
:101AA0001A1BD006C00E15D0029D2021019C091AD8
:101AB000C5408C402543029C8C4000D00124254326
:101AC000019C02953D46C4408D4039462C43C1409F
:101AD0000194009154111DD06D460221002202296B
:101AE0000CD10320001B07E0002804DB8600AE5960
:101AF000002E00D00122401C0328F5DB081B02D574
:101B000088002A5004E08000285810438A00A8501A
:101B1000491EE3D51C460A98002802980CD00028DC
:101B200000D001200199019A490508430121D20AF8
:101B3000C902D202019200E00121109B0122D207CA
:101B4000012B02D0002B03D013E0002807D116E0B0
:101B5000904204D890420CD1019B0B4209D0019BCA
:101B60005918019105D10099491C009101D1641CBB
:101B70000092002803D0102108460020C046089893
:101B80000999019A0068096848400099C30F0798AD
:101B9000DB0723430360826041600BB0F0BD1FB5DB
:101BA000002300920A46014601A8FFF71DFE01AB83
:101BB00007CB04B010BD1FB5012300920A460146B1
:101BC00001A8FFF711FE01AB0F2407CBA402C30F3E
:101BD0004000DB074008001B002900DB0020490013
:101BE00000054908CC0A204349051843D20A11438D
:101BF000DFE71FB5002300920A46014601A8FFF760
:101C0000D7FE01AB07CBD4E71FB5012300920A46EC
:101C1000014601A8FFF7CCFE01AB0F2407CBA402BD
:101C2000C30F4000DB074008001B002900DB002039
:101C3000490000054908CC0A204349051843D20A47
:101C40001143B6E702C0FFFF013C0000FF3F000068
:101C5000C80212D54803400F002804D0C803C0436F
:101C6000012188407047EFF3008000010009032143
:101C70000907084380F30088704700207047000080
:101C800010B500200249029A00F0E4FA10BD0000ED
:101C90000000F87F00487047540700207546FFF7A2
:101CA000F9FFAE46050069465346C008C0008546A8
:101CB00018B020B5FEF780FA60BC00274908B64688
:101CC0000026C0C5C0C5C0C5C0C5C0C5C0C5C0C54B
:101CD000C0C5403D49008D467047000010B5FFF774
:101CE0004FFC001D10BD00BF39410000FFB58BB097
:101CF0000878FF2806D0491C2D2805D00023002095
:101D0000009009E000200EE00123F8E7009A0A2481
:101D100062438018491C00900878FF28F6D1002BF8
:101D200002D0009840420090002503952C460D9863
:101D300000782D2801D02B2815D10D99491C2D286C
:101D40000D9102D0002003900DE00120FBE7401C24
:101D5000214600270A223B460D90284600F0AEFAA5
:101D600035183C464C410D980678FF2EEFD10021E6
:101D700008460020C0460399002902D0810040187F
:101D800040080002870F012F01DD0027FF430E9955
:101D900000984618284620430BD0FF20F530C64255
:101DA00010DA0398C1070B9841600B990020086076
:101DB00018E00398C1070B9841600B990020086058
:101DC0000FB0F0BDFF20F530864210DDF6487844B4
:101DD00006C80B9806C00B9803994068C9070843CA
:101DE0000B99486000F066FA02210160E8E7311EB5
:101DF00001DA7A4200E03A46002900DA714207A887
:101E0000FFF76EFC07AB07CB04AB07C3E7480090B6
:101E100000200146214304D12C460546E3492039E0
:101E20000091210C0904014306D1290C24040C4320
:101E300000992D0410390091210E0906014306D1A5
:101E4000290E24020C4300992D0208390091210F1C
:101E50000907014306D1290F24010C4300992D01E4
:101E6000091F0091A10F8907014306D1A90FA40002
:101E70000C430099AD00891E0091E10FC90708438A
:101E800004D100986D196441401E00903A4668469E
:101E9000002E04A90295019402DDFFF78CFE01E0FB
:101EA000FFF7B2FE044603980D46002802D0012039
:101EB000C0074440BE4E60004008284303D0600085
:101EC000400DB04214D100F0F5F90221016060002C
:101ED000400DB0420CD1B748784406C80B9806C0F4
:101EE0000B98E10FC907406808430B99486067E702
:101EF0000B9844600B98056062E7FFB51F4695B0EC
:101F0000002000250C909E685C68ED431390FFF75D
:101F100037FBC0680168405C1490B96916986D1C65
:101F200088470A90396A88470028F6D10A98401CE9
:101F30000AD00D20C0018443002E12DD0A982B2800
:101F400009D02D280DD103E00020C04319B0F0BD09
:101F5000012080020443B96916986D1C8847761EDB
:101F60000A90600504A901D52D2000E02B206A46C7
:101F7000491C107410A8002E0D910B903BDD0A989F
:101F8000692805D0492803D06E2801D04E281DD1DC
:101F90003B46039002200296179A1699C04300957B
:101FA000019404F003F8C11CD0D10FE0B969169870
:101FB0006D1C88470A900120761E40020443179842
:101FC00005601398401C002E139014DD0A983028E9
:101FD000ECD0782801D058280DD1139801280AD1C7
:101FE0003B460296179A1699001F0095019403F03C
:101FF000D5FFC11CAAD114990A98884246D18020E5
:10200000044308E00C981799401E0C9001204002F0
:102010000443681C0860B9696D1C1698761E8847D1
:1020200030280A90EED031E01499884205D120067C
:1020300003D480200443761E1EE00A9803F0CAFAF7
:10204000002826D0012008A9400204430D9803313E
:10205000761E88420BD20A980D99303808700D9878
:10206000401C0D90200607D50C98401E03E020066A
:1020700002D40C98401C0C90A00502D51799681C3E
:102080000860B96916986D1C88470A90002ECBDC51
:1020900059E0002E57DD0A98652801D0452852D115
:1020A000A00550D50320B969000284436D1C169821
:1020B000761E8847002E0A900CDD2B2804D02D2890
:1020C00008D1FF2001300443B96916986D1C884778
:1020D000761E0A90E00501D52D2100E02B210B98FA
:1020E00001700B98401C0B90009025E0012012A974
:1020F000400204430B980131761E88420ED20A98A2
:102100000B9930380006000E087003D100990B9827
:1021100088420AD90B98401C0B9006E0E00501D5D7
:10212000254801E0244840420C90B96916986D1C7E
:1021300088470A9017980560002E04DD0A9803F07E
:1021400049FA0028D2D1F969169888470D99FF20DD
:1021500004AA08700B99087000200E900F900C9B39
:1021600010A90EA8FFF7C2FDA00502D40120C043AC
:10217000ECE62420044209D0E00713D138680F9A16
:102180000E99031D3B60006806C00BE00EA968466F
:1021900003F0C8F9E00705D13868009A011D3960DD
:1021A000006802602846D1E61E4400003E40000060
:1021B000FF07000014430000F1D8FFFF10B50446EC
:1021C000C046C0462046FDF7E6FF10BD024670B58A
:1021D0000A4392072AD11E4DEE0104C808C9541BB8
:1021E0009443344017D0D0B2D9B2401A21060143EB
:1021F00010D190B299B2401A210401430AD11002C1
:102200001902000A090A401A2102014302D1100EE4
:10221000190E401A70BD9A42DFD010BA19BA88421E
:1022200001D9012070BD0020C04370BD02780B7839
:10223000401C491C002A09D09A4207D102780B7829
:10224000401C491C002A01D09A42EFD0D01A70BD20
:102250000101010110B50C461107090F092904D02D
:102260000A290AD008290CD104E011460820FFF7FA
:10227000EFFC06E0510606D501E0510601D501202C
:10228000C007214610BDD10607D501010909CC08B8
:102290004907000E0006044309E0410F20024907E8
:1022A000000A0143200E00061D22D14101430846C9
:1022B000E7E70000004870475407002043435143BC
:1022C00030B55C18010C130C0D4692B25D4380B220
:1022D00051432C19054655430A0C09044D19624116
:1022E0005843010C00044019514130BD01491820E8
:1022F000ABBEFEE72600020010B5FFF7DBFF00686B
:1023000010BD10B50446FFF7D5FF046010BD0000F6
:10231000FFB51F4689B0139812994005C00FC0073A
:1023200005900020079005460446461E0490029042
:102330003C20491C12910690B9690A98884703907D
:102340001498401E14901498002841DD03982E28FC
:1023500016D0102100F025FA002834DB0121049169
:10236000079901431AD0069900290CDB069AC11778
:1023700000F007FA054306980C43001F069006E09C
:10238000012002900EE0002801D001200543012029
:1023900007900298002805D1361D03E00298002816
:1023A00000D0361F1298401C1290B9690A988847CD
:1023B00003901498401E149004980028C3D00B99E1
:1023C00012980860BFE70398702808D0502806D0FC
:1023D000F9690A9888470498002815D051E0002030
:1023E000039001200290049800280AD01298401C03
:1023F0001290B9690A9888471499491E00291491C6
:1024000006DCF9690A9888470120C0430DB0F0BD89
:102410002B2804D02D280DD10020C0430290129803
:10242000401C1290B9690A9888471499491E0029DE
:102430001491E6DD411CE4D00A2100F0B2F9002835
:10244000DFDB03990A225143081803901298401CBD
:102450001290B9690A9888470A2100F0A2F91499E4
:102460000B9A491E1491129911601499002901DDEB
:102470000028E6DAF9690A988847029903984843E0
:10248000861913982421084004902846204304D03C
:10249000A10F8907090002D006E005989BE0A90F6B
:1024A000A4000C43AD00B61EE10FC907080002D11D
:1024B0006D196441761E0498002803D00B20029009
:1024C0005D4803E0282002907D20C04386420390AF
:1024D00007DA811B029808184128029001DD41208B
:1024E0000290029A01200021521E00F04AF9024691
:1024F00028400B462140084301D0012000E0002085
:1025000007900020521EC04343412A4023401A43F3
:1025100001D0012000E0002007990690014352D02D
:10252000002108460020C0460321059A890508407D
:10253000002A05D082008018C20F101840100840F1
:102540008015012802DD0020C04301E0012815D0DC
:10255000401C38D00798002835D0069800280DD1A7
:10256000029A0120002100F00CF928402140084384
:1025700001D0012000E00020002824D0029A012090
:10258000002100F0FEF8034640198C4661412A1AEA
:102590008C410FD30298402807DD0498039E002841
:1025A00001D0343E02E0173E00E0761C01240025F5
:1025B000E40708E05B1E62460024E4436241DD4319
:1025C000D44305400C4003980121081AB04206DAB2
:1025D0001A49059808430190002000900EE0600021
:1025E0006205010BE80A1043059A009068460A4309
:1025F00013490A433146019202F0E2FF0498002891
:102600000AD01398C00714D13868019A0099031DA5
:102610003B60006806C00CE002A8694602F082FF39
:102620001398C00705D13868029A011D3960006807
:1026300002601298EAE6000002FCFFFF0000F07F53
:102640000000F03FFFB51D4687B01198484A109C26
:10265000129E40051399C00F761EC00702430192D7
:1026600000220092FF22D2051043202291434929E3
:10267000059003D017464E2928D04FE03DA002AA6E
:102680000BC801270BC2A9690898641C8847761EED
:10269000014607D402A8C05D002803D02022914340
:1026A00081420AD0E96908988847032F36D0082F5D
:1026B00034D00120C0430BB0F0BD7F1C032F01D0EC
:1026C000082FE0D10999601C0860DCE7A969089827
:1026D000641C8847761E2DD4B84341282AD1A969A5
:1026E0000898641C8847761E24D4B8434E2821D10C
:1026F000A9690898641C884701990122D2041143F2
:1027000001910599D200114305910999761E0C603B
:1027100001D4282806D0E969089888471198C0078D
:1027200012D023E0A9690898641C8847761E01D45A
:10273000002803DAE96908988847BAE72928F1D11F
:102740000998641C0460E9E711982421084207D025
:102750002868019A0099031D2B60006806C005E0F7
:1027600028680599021D2A60006801602046A2E7DA
:102770000000F07F494E46494E4954590000000080
:10278000704710B5202A04DB0146203A9140002012
:1027900010BD914020239C1A0346E340194390400A
:1027A00010BD3A2800D23038202302469A43412AED
:1027B00001D310463738884201D30020C043704708
:1027C00038B50446064805490068FDF7D5FE604364
:1027D00000E0401E00900028FBD138BD40420F00B1
:1027E00094000020F8B50446006881688907890FC5
:1027F000012902D10168C90722D18168114A102636
:102800001140012500290ED18168294381600120F2
:10281000FFF7D6FF00F00AFC07460CE000F006FCCC
:10282000C01B0A2807D9606D30436065A06D28433E
:10283000A0650120F8BD20680068C043C007EDD145
:102840000020F8BD1700008070B50122074D064634
:1028500054032146284600F0E2FB304600F0FEF922
:1028600000222146284600F0DAFB70BD000400502B
:1028700010B5012000F006FB10BD10B5202000F0BF
:1028800001FB10BD72B6FEE710B50221034800F04F
:10289000C1FB012800D0002010BD00000004005042
:1028A00010B501218903034800F0B4FB012800D0D2
:1028B000002010BD00040050F8B506460D46403615
:1028C000317C01290DD00121317401688A685207D9
:1028D00009D5416D2022114341650020307401204B
:1028E000F8BD0220F8BD174B6A68D80547109A4218
:1028F000154C8A6A2B6812D05B035B0B1A438A6201
:102900002968490305D5A1680143A1600A20FFF7A2
:1029100057FF2868800312D5A06838430EE05B0398
:102920005B0B9A438A622968490302D5A1688143F7
:10293000A1602868800302D5A068B843A060002089
:102940003074F8BD01100000002701400068006CE1
:102950007047000070B5040006D0606D2646002563
:102960004036002802D006E0012070BDA565357410
:10297000204600F0D3F8606DC00603D42168886853
:10298000400705D5606D1021084360653574EBE79D
:10299000606DFF2201329043022210436065886817
:1029A0008207920F5B48012A02D10A68D2072BD115
:1029B000032362689B079A4205D05B429A4202D089
:1029C0005B009A4209D10A69920092080A61216863
:1029D0000A6963681A430A610CE00A699200920866
:1029E0000A6181680F229204914381608168626864
:1029F000114381602168CA6818239A43CA6021681C
:102A0000CA68A3681A43CA608168012252069143CA
:102A100081608168A28E52061143816020688168BE
:102A2000C90004D481680122120711438160206823
:102A3000C168394A1140C1602069E168022825D087
:102A400000200143204620300278037B52035B00C4
:102A50001A431143226B1143A26992031143E269A5
:102A6000D20311432268D3681943D160616A0A46D0
:102A7000FF3AC23A05D0A26A11432268D3681943CB
:102A8000D16042780121012A02D00BE00420D8E76E
:102A90000078002823D0606D202210436065A06D6F
:102AA0000843A065E06B012820681FD00169C907B1
:102AB00003D0016949084900016120684169C908DA
:102AC000C900416120684169A26B11434161A5655C
:102AD000606D80088000401C6065002070BD20682B
:102AE000C26801231B041A43C260DBE70269FF23AB
:102AF0009B009A43026120680269236CA66C1A430A
:102B0000636C33431A430261206802690A4302611D
:102B1000D3E70000002701401902FEFF10B586B080
:102B2000044614216846FDF7EFFC0E4920688842F0
:102B300015D10D48416B421511434163C26A022110
:102B40000A43C262C06A0840059001200090032039
:102B50000190002002906946044800F09FF906B0F9
:102B600010BD00000024014000100240000400508D
:102B700070B50446216800208968490721D425469C
:102B80004035297C01291CD001212974E1690129E2
:102B900004D02046FFF726FE002811D1616D0A4AB5
:102BA0001140FF220132114361650021A1652974A2
:102BB00022681C21116021688A6804231A438A60F4
:102BC00070BD022070BD0000FEF1FFFF30B5014670
:102BD00020314A790023022A04D00422C2630B71F7
:102BE000012030BD026814680E25AC4314600268F1
:102BF0001468640864001460446C1C2214400122B0
:102C00001546006CA54045604A7118460B7130BDF1
:102C100070B50024014620314A79022A03D00421EC
:102C2000C163012418E0026813680E25AB431360EA
:102C3000026813685B085B001360436C1C2213403E
:102C4000012215469D40036C5D604A7100220A71A5
:102C5000816B002900D08847204670BD70B50446BE
:102C600000F0E4F90546601C02D0044800782418FE
:102C700000F0DCF9401BA042FAD370BD88000020B0
:102C8000F0B5664D664F674C0026EDB001285AD06E
:102C9000202856D1142168A8FDF736FC7D23DB00DF
:102CA000142268A9604801F03FFC5F490868826906
:102CB00008231A43826108688169102211438161E7
:102CC00068AA5AA108A8FDF70BFB08A802F038FF74
:102CD00068A802F04DFF002833D0012872D00228E6
:102CE00074D003282DD1534953488A680192026059
:102CF000C868524A009010600A6951480292026006
:102D00003868FEF7CBF884464F4B029804904D4F3D
:102D10009A1D05A88CC00098019A03906046019105
:102D20000090029223782A78484928A8FDF7D8FA1B
:102D300028A802F0B3FF4448401E0670444801F042
:102D4000FDF86DB0F0BD43480178CA0702D0491CB8
:102D50000170F6E7642901D0652900D10670017879
:102D6000491C01700A20FFF779FF7D20C000FFF7A2
:102D70006BFD374801F008F9FFF786FD28702D48F4
:102D800002F0BCFD02F048FD3860FFF789FD324DCE
:102D900020702E7002F000FD7D20C000FFF75EFF66
:102DA0002EA002F0B9FF00246420FFF757FF287817
:102DB000002803D1641CE4B21E2CF5D32AA002E043
:102DC00000E003E02BA002F037FFBAE7FFF75CFD5D
:102DD00012490870174802F091FD02F01DFD38609D
:102DE000FFF75EFD207005463868FEF757F8114A78
:102DF000154E13690493134FB41D05ABD0C3D368AC
:102E000092686E460FC605482B4602781C4928A8D2
:102E1000FDF766FA28A802F09FFF92E7070000205E
:102E20000C0000200800002090060020424C453A8B
:102E300025730A0000050020180000201000002063
:102E4000140000209804002079000020F46000089D
:102E500014070020040000200900002023474554E7
:102E60005F5245512300000054544D3A4144562DC1
:102E70003100000054544D3A4144562D30000000BA
:102E80008C61000810B504494A69024202D04861C9
:102E9000FFF7F6FE10BD000000040140FCB5002362
:102EA0000124A2E027462A469F403A406FD04D6851
:102EB000012D05D0022D03D0112D01D0122D16D1D8
:102EC00085680326AC465D00AE46AE406546B54318
:102ED000AC46CE687546AE4065462E438660466871
:102EE0000D79BE43ED06ED0F9D4035434560C66844
:102EF0005F000325BD40AE46AE4335468E68BE40FA
:102F00002E43C6604E68022E01D0122E14D1DE0868
:102F1000B60036180196366A5D07B446EE0E0F25E8
:102F2000B54000966646AE43B4460D69009EB54076
:102F300066462E43019D2E6206687546AE430D79A6
:102F4000AD07AD0FBD40354305604D68ED004BD575
:102F5000294D6E6B26436E639E08284DB600751989
:102F6000AC46AD689E07360F0F27B740BD43052717
:102F70003F07B84201D1002715E0214FB84201D1E7
:102F8000012710E01F4FB84202D102270BE02BE0CF
:102F90001D4FB84201D1032705E01C4FB84201D1B3
:102FA000052700E00627B7402F436546AF60184D60
:102FB0002E684F689643FF0300D516432E606E6857
:102FC0004F689643BF0300D516436E60AE684F68E6
:102FD0009643FF0200D51643AE60EE684F689643F5
:102FE000BF0200D51643EE605B1C0A681546DA4046
:102FF00000D057E7FCBD0000001002400000014077
:103000000004005000080050000C0050001C00504C
:10301000000401400069084000D001207047002AE8
:1030200001D081617047816270470000014880686B
:10303000704700008800002070B502464032537887
:10304000202B1CD11378012B19D0012313702424B9
:103050005470046825689D432560046825681E0334
:10306000B5432560046825680D4325600068016844
:1030700019430160202050700020107070BD0220A4
:1030800070BD70B5024640325378202B1BD11378A7
:10309000012B18D0012414702423537003681D6879
:1030A000A5431D6005682B680F263602B34309024D
:1030B0001943296000680168214301602020507095
:1030C0000020107070BD022070BD000070B50400BB
:1030D00006D02546403568780026002802D005E055
:1030E000012070BD2E70204600F02AFA242068705E
:1030F000206801684908490001600F2160680906DD
:1031000088432168086121688A680120C0038243DE
:103110008A60E1680129A16808D021229202114346
:1031200022689160E168022902D005E00143F7E7D7
:1031300001212268C902516021684A680F4B1A4375
:103140004A602168CA688243CA606169206908438D
:10315000A169090208432168C860216AE06908433F
:1031600021680860206801680122114301606664DB
:10317000202068702663AE70002070BD00800002C1
:10318000FFB50446002083B02546403501906A789B
:10319000202A74D122689269D24312047BD52A78FE
:1031A000012A78D001222A7024226A7060648F0577
:1031B000BF0DE06801280BD00520C002012138189E
:1031C0008902884321684860FFF730FF06460CE01B
:1031D0003248F3E70698401C07D0FFF727FF811B12
:1031E0000698814219D8002817D021688869896912
:1031F0008006C00FC906C90F0843EBD0206880695C
:10320000069BC043C006009617D500222021204609
:1032100001F0B6FB002830D107E020206870616C17
:10322000014361640020287027E021682020C861E4
:1032300068700020287007B0F0BD002220212046D1
:1032400001F09EFB002818D121681020C861216878
:103250002020C86101990598814214D120684168F5
:103260000122920311434160009600222021204652
:10327000069B01F085FB002802D00120DBE70AE075
:1032800021682020C8610198401C014601900598E2
:1032900081428ED3C1E70220CDE70000002000026A
:1032A000FFB5054604464035687883B0202875D1BF
:1032B0000C98002814D00D98002811D028780128E7
:1032C0006CD001202870FFF7B1FE07460122009064
:1032D0001923D103204601F053FB002874D103E0E9
:1032E0000120400260646FE0222068704020A870D6
:1032F000002666640C9860620D98608566630E987F
:103300000090019704A90EC9204601F0C5FA0028D3
:1033100001D02E7058E0618D3448FF2905D9FF2275
:10332000228501231B06009006E0618D2185009017
:10333000208D0123C2B25B062046049901F00CFBEC
:1033400000970022042120460E9B01F019FB002863
:103350003AD12068406A616A0870606A401C606205
:10336000208D401E81B22185608D401E6085608D5C
:1033700000281FD000291DD100970022802120465F
:103380000E9B01F0FDFA00281ED1608DFF2806D9A2
:10339000FF22228501231B06009607E024E0608DB2
:1033A00020850096208D0123C2B25B062046049939
:1033B00001F0D2FA608D0028C2D13A4620460E991B
:1033C00001F005FB002802D0012007B0F0BD206805
:1033D0002021C16120684268054B1A404260697033
:1033E000AE702E700020F0E70220EEE7002400808F
:1033F00000E800FEFFB5054604464035687883B016
:10340000202872D10C98002814D00D98002811D0D3
:103410002878012869D001202870FFF707FE0746A9
:10342000012200901923D103204601F0A9FA0028B7
:1034300071D103E00120400260646CE021206870DB
:103440004020A870002666640C9860620D98608524
:1034500066630E980090019704A90EC9204601F0FA
:103460004BFA002801D02E7055E0608DFF2805D959
:10347000FF22228501231B06009606E0608D208531
:103480000096208D0123C2B25B062046049901F00C
:1034900063FA3A4620460E9901F0BFFA00283AD165
:1034A000606A216800788862606A401C6062608D92
:1034B000401E6085208D401E80B22085618D0029D0
:1034C0001FD000281DD100970022802120460E9B8E
:1034D00001F056FA00281ED1608DFF2806D9FF2280
:1034E000228501231B06009607E024E0608D2085DD
:1034F0000096208D0123C2B25B062046049901F09C
:103500002BFA608D0028C4D13A4620460E9901F06E
:103510005EFA002802D0012007B0F0BD206820210B
:10352000C16120684268054B1A4042606970AE7004
:103530002E700020F0E70220EEE7000000E800FE19
:1035400010B586B0044614216846FCF7DDFF11492A
:10355000206888421BD1104CE16A02200143E162DD
:10356000E16A0140032005910002009012200190C1
:10357000002002900320039004200490694607482D
:10358000FFF78CFCA06B012149050843A06306B03E
:1035900010BD000000540040001002400004005024
:1035A00005480178002901D10121017003490A6809
:1035B00000781018086070478800002090000020F4
:1035C00010B50848002401684022114301602046DC
:1035D00000F00AF8002801D0012401E000F026F8EC
:1035E000204610BD0020024070B504460D4D7D20E0
:1035F0002978C000FCF7C0FF01460B480068FCF7C3
:10360000BBFF00F01FFC002809D1042C07D20022C8
:103610002146401E00F022F800206C6070BD0120A1
:1036200070BD000088000020940000200448416B19
:10363000012211434163816B02041143816370478E
:1036400000100240002805DBC106C90E0120884099
:10365000014908607047000000E100E010B501F08A
:103660002BFF10BDF8B5044600780027534D8006A7
:1036700071D5524E403EB06BC00004D4B06BA9056A
:103680000843B06301274E480168C90511D4016899
:10369000821511430160FFF7C9FC009005E0FFF7B8
:1036A000C5FC0099401A642837D845480068C00511
:1036B000F5D532680321090560680A40014091424E
:1036C00008D08103890F032904D13168890301D50A
:1036D0000120F8BD2A69032109040A4022D00840CC
:1036E00090421FD0207880061CD528692A6988431B
:1036F0000121C9040A432A612A698A432A6128618F
:10370000C0050FD5FFF792FC009008E0FFF78EFC94
:103710000099411A2B48814201D90320F8BD28693C
:103720008005F3D561688803800F032805D13268CE
:103730000005824301400A43326028690322616820
:103740001204114008432861002F04D0B16B0120FE
:1037500000078143B1632078C00705D0E868A168FD
:10376000800880000843E8602078800705D5E86875
:103770000C218843E1680843E8602078400706D5BB
:10378000E86803218902884321690843E8602078BA
:10379000000706D5E86803210903884361690843E7
:1037A000E8602078000606D5E8680321890488438C
:1037B000A1690843E8600020F8BD00004010024005
:1037C0000070004088130000F8B50E46050038D0A0
:1037D0005E480068C007C00FB04214D25B4C20683E
:1037E0004008400030432060FFF720FC074605E01A
:1037F000FFF71CFCC11B564881427AD82068C007DD
:10380000C00FB042F4D12878524C800705D5E0684B
:10381000F0218843A9680843E0602878C00752D0A7
:103820006868022806D0032807D0216801280AD03A
:10383000890504E02168890301E0216889010029E4
:1038400003DB0120F8BD4907F9E7E1688908890031
:103850000143E160FFF7EAFB0746686802280AD0E7
:10386000032814D001281ED029E0FFF7DFFBC11B7D
:10387000374881423DD8E0680007800F0228F4D124
:1038800021E0FFF7D3FBC11B3148814231D8E0680A
:103890000007800F0328F4D115E0FFF7C7FBC11B19
:1038A0002B48814225D8E0680007800F0128F4D119
:1038B00009E0FFF7BBFBC11B2548814219D8E0682E
:1038C0000007800FF5D121480168C907C90FB1422F
:1038D00017D901684908490031430160FFF7A6FB89
:1038E000074608E005E0FFF7A1FBC11B184881422D
:1038F00001D90320F8BD15480068C007C00FB042C9
:10390000F1D12878400706D5E068072109028843ED
:10391000E9680843E0602878000707D5E0680721D8
:10392000C90288432969C9000843E06000F03AF8F9
:10393000E168094A0906090F515CC8400749086057
:1039400007480068FFF750FEF8BD00000020024065
:103950008813000000100240BC5F000894000020A3
:103960008C000020044805490068C968044A4905DC
:10397000490F515CC840704794000020001002407D
:10398000D55F0008044805490068C968044A8904ED
:10399000490F515CC840704794000020001002405D
:1039A000D55F000870B51A4AD3681A490C20184030
:1039B0008D0004280CD04E00082810D00C2810D000
:1039C00050680004410F0120C003491C884070BDAD
:1039D0001068C00601D5084670BD284670BD304647
:1039E00070BD98020C4C000F205C1B029C0FD3682A
:1039F000641CDB0301D5314603E01268D20600D413
:103A0000294601F01DFD22460023FCF7E7FB70BDAF
:103A10000010024000093D00CC5F0008FEB5050023
:103A20007ED0FE4CE7680C20E668074001200004C9
:103A300006402878C00747D0082F05D00C2F0AD1A0
:103A400001200004864206D1206880033CD56868C6
:103A50000028E5D038E0012069680004814203D1E4
:103A600021680143216011E0052301221B04920417
:103A70009942216802D111432160F1E7814321601D
:103A80002168014000912068904320606868002808
:103A90000DD0FFF7CBFA009005E0FFF7C7FA0099C9
:103AA000401A64287BD820688003F6D50CE0FFF725
:103AB000BDFA009005E0FFF7B9FA0099401A6428B2
:103AC000F0D820688003F6D42878800756D50923DB
:103AD000E868042F0DD00C2F01D1002E09D000284A
:103AE0003CD02168994301432160FFF79FFA0646C5
:103AF00028E02168490701D5002891D061681F227C
:103B0000120291432A6912021143616021689943AC
:103B100001432160FFF746FFE16809060A0F00E054
:103B20008BE1BF49895CC840BE490860BE48006857
:103B3000FFF75AFD002873D120E0FFF777FA801BCA
:103B40000228AFD820684007F7D560681F21090216
:103B5000884329690902084360600FE02068400833
:103B600040002060FFF762FA064604E0FFF75EFAC5
:103B7000801B022896D820684007F7D42878C00612
:103B800060D5002F0CD0A86900284AD02068FF21FA
:103B9000013108432060FFF749FA06462EE0C1E0F4
:103BA0002068800502D5A8690028A6D06068072192
:103BB00049038843296A084360606068297F0002DE
:103BC000000A090608436060286A410B0120C0030F
:103BD000491C8840E16809060A0F9149895CC84080
:103BE0009049086090480068FFF7FEFC002817D154
:103BF00028E0FFF71BFA801B0228A2D82068800566
:103C0000F7D56068072149038843296A0843606043
:103C10006068297F0002000A09060843606011E01D
:103C2000E2E02168FF20013081432160FFF7FEF9C7
:103C3000064604E0FFF7FAF9801B022872D82068D4
:103C40008005F7D42878794E000724D568690028C4
:103C5000306910D0012108433061FFF7E7F9009087
:103C600005E0FFF7E3F90099401A02285AD83069B5
:103C70008007F6D50FE0400840003061FFF7D6F925
:103C8000009005E0FFF7D2F90099401A022849D8C0
:103C900030698007F6D42878400766D50020029066
:103CA000A06BC00006D4A06B012109070843A063E4
:103CB000012002905E480168C90511D4016882158F
:103CC00011430160FFF7B2F9009005E0FFF7AEF98C
:103CD0000099401A642825D855480068C005F5D5D4
:103CE000FF20AA680130824203D13169014331616A
:103CF00011E001218902002A07D005231B029A4204
:103D000003D132690A433261EFE73269824332619B
:103D1000306988433061A868002810D0FFF786F921
:103D2000009008E05FE0FFF781F901460098091A6A
:103D30004048814257D830698005F4D50DE0FFF73F
:103D400075F9009006E0FFF771F90099411A3948BA
:103D5000814248D830698005F5D40298002804D003
:103D6000A06B012109078843A063686A002866D018
:103D70000C2F3ED0012636060228206805D0B0431D
:103D80002060FFF753F905462FE0B0432060FFF7AE
:103D90004DF9074604E0FFF749F9C01B022822D875
:103DA00020688001F7D4E96AA86AE2680843296BB1
:103DB000FD231B049A4311430843E060206830430D
:103DC0002060FFF733F9054604E0FFF72FF9401BA9
:103DD000022808D820688001F7D530E0FFF726F9DF
:103DE000401B022801D90320FEBD20688001F5D4C4
:103DF00025E00128F8D0E06801210904AA6A014001
:103E000091421AD10F218904EA6A0140914214D1EA
:103E1000032189050840296B88420DE0001002400B
:103E2000BC5F0008940000208C000020401002407D
:103E3000007000408813000001D00120FEBD00206A
:103E4000FEBD0000094910B5401E884201D901207D
:103E500010BD074C60610321081F01F02DFB0020FD
:103E6000A06107202061002010BD0000FFFFFF00BF
:103E700000E000E0F0B502462032137E012B1ED098
:103E8000012515760223537606687468B368702797
:103E9000BC430F68274377600068AC07A04205D099
:103EA000084CA04202D0084CA04204D180244968AA
:103EB000A34319438160557600201076F0BD02209F
:103EC000F0BD0000000801400014014070B505007D
:103ED00005D02C462034607E002802D006E0012068
:103EE00070BD00202076284600F010F80220607691
:103EF000291D286800F094FF0120A077A076E076C5
:103F0000207760776076002070BD000010B50068F3
:103F1000084988420CD10848816B10221143816303
:103F2000002203211120FFF799FB1120FFF78AFBE4
:103F300010BD00000010004000100240014620317A
:103F40004A7E012A01D00120704702224A76026887
:103F5000D36801210B43D36000688A07904205D0E3
:103F6000074A904202D0074A904204D18268520721
:103F7000520F062A02D002680A43026000207047EE
:103F800000080140001401400168CA68520852004C
:103F9000CA6001680A6A064B1A4203D10A685208CD
:103FA00052000A6001212030417600207047000055
:103FB00011110000704770B50446006801690025C2
:103FC000C9438907002915DBC168C943890711D492
:103FD000E91E016101202076206880698007204663
:103FE00002D0FFF7E7FF04E000F078F8204600F089
:103FF00076F8257620680169C943490717D4C16856
:10400000C943490713D40421C94301610220207622
:10401000206880698005800F204602D0FFF7CAFF24
:1040200004E000F05BF8204600F059F8257620689F
:104030000169C943090716D4C168C943090712D4E5
:104040000821C9430161042020762068C0698007E7
:10405000204602D0FFF7AEFF04E000F03FF8204614
:1040600000F03DF8257620680169C943C90617D4D8
:10407000C168C943C90613D41021C943016108208E
:1040800020762068C0698005800F204602D0FFF7A7
:1040900091FF04E000F022F8204600F020F8257699
:1040A00020680169C943C90708D1C168C943C90764
:1040B00004D1891E0161204600F012F820680169D0
:1040C000C943490609D4C168C943490605D44021FA
:1040D000C9430161204600F06BF870BD704770471E
:1040E000F0B5274900680968C9B0884245D125481C
:1040F00001F004FC01F090FB234E3060FEF7D0FB92
:104100002249234D08700020287001F045FB7D20D6
:10411000C000FEF7A3FD1FA001F0FEFD00246420F7
:10412000FEF79CFD2878002803D1641CE4B21E2C05
:10413000F5D31B4C207800281FD101F085FA002808
:104140001BD03068FCF7AAFE0E4A164F1369049381
:10415000661CE51D05ABE0C3D36892686D460FC5CC
:104160000A48124903781048027808A8FCF7B8F802
:1041700008A801F093FD0120207049B0F0BD0000B7
:1041800014070020000500200C000020080000207B
:1041900009000020234745545F5245512300000089
:1041A00078000020980400200700002040610008EB
:1041B00070477047704770470146806FC96F08436A
:1041C00070470000F8B502680446D0691168966827
:1041D000814B05461D402023002D6CD0F7077F4DF5
:1041E000FF0FBC460D402F4379D02546C7078035C9
:1041F000002F06D0CF0504D5012717622A683A435D
:104200002A60820708D5F20706D0276802223A62A0
:104210002A6804273A432A60420708D5F20706D0E5
:104220002668042232622A68022632432A60020784
:104230000AD50A461A406646324305D02668082247
:1042400032622E6816432E60020508D54A0106D553
:1042500001222668D20232622A681A432A602A683A
:10426000002A30D0800606D5880604D5616E002964
:1042700001D020468847286821688968490602D409
:104280002821084225D0204600F098FE2068816849
:10429000490619D5826840218A438260206F002830
:1042A00012D04F498163206FFEF7B2FC00280AD07C
:1042B000206F816B06E0850611D58D060FD5616EE6
:1042C00077E020468847F8BD2046FFF774FFF8BD29
:1042D00005E02046FFF76FFF00202860F7E7256E16
:1042E000012D56D1C50654D5CD0652D510261662DD
:1042F0002068816825464906403500292ADA226F60
:10430000116849680904090CE1D02F8B8F42DED96E
:10431000698311680968890617D4016832019143DD
:1043200001602068816849084900816020688168CF
:10433000402291438160E367002020662068016885
:10434000B1430160206FFEF741FC288B698B401A56
:1043500081B21AE0298B6A8B891A6A8B89B2002A8A
:10436000B5D00029B3D00268FF252135AA430260E9
:1043700020688268520852008260E367002020664D
:10438000606620680268B24302602046FFF711FFB2
:104390009DE7C50208D5750206D50120000510620B
:1043A0002046FFF707FF92E7050605D50D0603D562
:1043B000A16E002985D18AE7400688D5480686D5B2
:1043C000116820464024A143116083670021816663
:1043D00000F017FA7BE700000F080000200100043E
:1043E000A94F000810B5040003D0A06F002802D028
:1043F00007E0012010BD002174200155204600F087
:1044000027F82420A0672068016849084900016056
:10441000204600F063FE0128ECD0606A002802D03C
:10442000204600F029FD206841680922D20291430C
:104430004160206881682A22914381602068016878
:10444000012211430160204600F07CFD10BD0000F8
:10445000F0B587B0044614216846FCF755F82D4D99
:10446000266800222C48022103230424AE4217D1DF
:10447000856B4E0435438563C56A0D43C562C06ACA
:104480006D460840059098021FC569462348FEF70F
:1044900005FD002203211D20FFF7E0F81D201CE090
:1044A0001F4F0125BE421CD1446BAE03344344630D
:1044B000C46A0C43C462C06A6C4608400590C020C0
:1044C0000393049223C469461448FEF7E7FC0022D4
:1044D00003211B20FFF7C2F81B20FFF7B3F807B03A
:1044E000F0BD104FBE42FAD1866B01277F043E43D8
:1044F0008663C66A2E43C662C06A6E46C007C00F96
:1045000005900C201FC6052069460007FEF7C6FC73
:10451000E5E70000004800400010024000040050A1
:104520000038014000440040FFB50446C06F85B02C
:1045300017460E4620287AD1002E0AD0002F08D028
:10454000A168C001814207D12069002804D1F00789
:1045500002D0012009B0F0BD204660300090007DFF
:10456000012864D0009801210175002080210851A4
:104570002221E1672066FEF759FD2546403502906D
:104580002F836F830121A0680903FF22884204D191
:104590002369002B0CD1274A0AE07F23002809D089
:1045A00001221207904219D12269002A05D03F2228
:1045B000AA8303E02769002FFAD0AB83AA8B01926C
:1045C000884202D1206900280AD037460026009987
:1045D000002008750198C0B203901AE00022E7E7B6
:1045E0000027F4E708980090002220212046029B33
:1045F00000F0C0FE002801D00320ABE72068002FA8
:104600000FD0416A0398014039707F1C688B401EAF
:104610006883688B0028E5D12020E067002099E7B7
:1046200005E0406A019908403080B61CEEE70220A0
:1046300090E70000FF01000030B5C36F202B27D1A9
:1046400000290BD0002A09D0012483682403A34247
:1046500006D10369002B03D1CB0701D0012030BD67
:10466000034660331C7D012C12D001241C750023ED
:104670000366084C0368A34207D05C68240204D593
:104680001C680125AD062C431C6000F027FE30BDE0
:10469000022030BD00480040F0B5012300681B49EE
:1046A000DB0300225C101A4D884213D1194801889F
:1046B0000E0406D4184E4F04367803D50A2E20D0A7
:1046C0000280F0BD0D2E1ED08B049B0C134C11E00C
:1046D0000180F0BD12498842FBD1124801880E04C6
:1046E000F7D4114E4F043678E8D40D2E0BD08B043E
:1046F0000E4C9B0C491C89B2E6540180A942DFD8BC
:10470000F0BD1943E4E72143E2E70000003801402F
:10471000FF0100000000002005000020980000209C
:1047200000480040020000200600002098020020FF
:10473000FFB50446806F83B017460D4620285ED132
:10474000002D0AD0002F08D0A168C001814207D1F6
:104750002069002804D1E80702D0012007B0F0BD8D
:10476000204660300090007D012848D0009801214B
:1047700001750020802108512120A067FEF756FC1A
:10478000264640360190378277820120A1680003D7
:10479000814202D12069002805D02F4600250099CA
:1047A0000020087511E00027F9E70022802120464B
:1047B00000F0E0FD002815D1002F15D021683878D1
:1047C00088627F1C708A401E7082708A019B00285C
:1047D00006980090E9D100224021204600F0CAFD51
:1047E000002808D00320B9E728882168C005C00D3B
:1047F0008862AD1CE6E72020A0670020AEE702201B
:10480000ACE77047FEE701688A69D243920701D49A
:1048100000228A6200688169C943C90703D081699F
:104820000122114381617047F7B5044600680E46C6
:104830008069C043C0062BD4202725464035206818
:104840008069C043800612D5701CF8D0FEF7EEFBDD
:104850000299401AB04201D8002EF0D1606C384362
:1048600060646F700020A87028700120FEBD216870
:104870001020C8612068C7612046FFF7C4FF206888
:104880004168044A11404160606C04210843E7E735
:104890000020FEBD00E800FEF8B5044616461548A7
:1048A0001D46DAB20090079F0023204600F054F81E
:1048B0003A462046069900F0B0F8002818D128465C
:1048C000F5B2012809D02168300A88623A462046AC
:1048D000069900F0A2F800280AD1206885620097A6
:1048E000002240212046069B00F04AF8002800D014
:1048F0000120F8BD00200080F8B504461646154892
:104900001D46DAB2C3020090079F204600F024F84B
:104910003A462046069900F080F8002818D128462B
:10492000F5B2012809D02168300A88623A4620464B
:10493000069900F072F800280AD120688562009775
:10494000002280212046069B00F01AF8002800D0A3
:104950000120F8BD00200080F0B50668059C756850
:10496000064F600D384385438805800D11040843C8
:104970001843204305437560F0BD0000FF63FF034B
:10498000F8B51D4617460E46044609E0681C07D0D8
:10499000FEF74CFB0699401AA8420BD8002D09D00F
:1049A00020688169304688430FD00020B842EDD09E
:1049B0000020F8BD616C20200143616440346070C8
:1049C0000020A07020700120F8BD0120EEE770B536
:1049D00016460D4604460FE0324629462046FFF7AC
:1049E00023FF002801D0012070BDFEF71FFB801BB4
:1049F000A84208D8002D06D020688069C0438006F0
:104A0000EAD4002070BD616C202001436164403411
:104A100060700020A0702070E5E770B516460D4666
:104A2000044611E0324629462046FFF7FDFE0028E5
:104A300001D0012070BD681C06D0FEF7F7FA801B7C
:104A4000A84208D8002D06D020688069C04380079E
:104A5000E8D4002070BD616C2020014361644034C3
:104A600060700020A0702070E3E7000010B50848D7
:104A7000FFF7A8FB0648FFF79FFB2028FAD1012289
:104A800004490348FFF7D8FD0028F8D110BD000005
:104A900088050020060000201CB500211848009160
:104AA000164A01910260C1631205426081600722CB
:104AB0008263012202610246C16020321170FF232D
:104AC0005170C233436281621173016381610422B8
:104AD00041634261C161FDF73DFF002801D0FDF750
:104AE000D1FE084800904014019069460448FDF743
:104AF000E3FE002801D0FDF7C5FE1CBD00240140E7
:104B0000A404002000010020F0B587B014216846FD
:104B1000FBF7FAFC3448C26A80210A43C262C26AC7
:104B20000A400592C16A01242143C162C16A214041
:104B30000591C16A02252943C162C06A0526284041
:104B400036070590224629463046FEF768FA0022CD
:104B500040213046FEF763FA244F002261033846B5
:104B6000FEF75DFA012228213846FEF758FA204860
:104B700001906946029500943046FEF78FF9422075
:104B80000025694631C1694630460395FEF786F92E
:104B90002020009017480190694602943046FEF7A5
:104BA0007DF9154800900195694602953846FEF753
:104BB00075F91248694631C1694638460395FEF7D2
:104BC0006DF9002202210520FEF748FD0520FEF7C1
:104BD00039FD002201210720FEF740FD0720FEF7E6
:104BE00031FD07B0F0BD000000100240000400508D
:104BF00000001110000021100240000028200000D9
:104C000010B51348114901601249416000218160CB
:104C10000161416181610122C161C2600162FEF7EF
:104C200055FA002801D0FDF72DFE00210848FEF7B7
:104C300003FA002801D0FDF725FE00210448FEF705
:104C400020FA002801D0FDF71DFE10BD00540040E1
:104C500020050020BB7C700010B50E480C49016097
:104C60004B21C901416000218160C1600161816106
:104C70000C22016242614162FFF7B4FB002801D0BF
:104C8000FDF700FE012204490248FFF7D5FC10BDE4
:104C90000048004088050020060000201CB50024C4
:104CA0000E4800940C49019401600D4984604160F4
:104CB0000C494461C160FFF709F9002801D0FDF7F4
:104CC000E1FD0094694605480194FFF7D3F80028F8
:104CD00001D0FDF7D7FD1CBD0010004014070020D7
:104CE0007F2500004FC3000010B50F480D4901603B
:104CF0004B21C901416000218160C1600161816176
:104D0000C1610C22016242614162FFF76BFB002826
:104D100001D0FDF7B7FD012204490348FFF78CFCE1
:104D200010BD0000003801400C06002005000020E6
:104D300010B50C480A4901604B21C90141600021AE
:104D40008160C16001618161C1610C2201624261C7
:104D50004162FFF747FB002801D0FDF793FD10BD2E
:104D60000044004090060020FEE77047704710B5F1
:104D7000FEF716FC10BD000030B599B0342168462E
:104D8000FBF7C2FB142114A8FBF7BEFB1C210DA8E6
:104D9000FBF7BAFB1C4801680322D2029143C214FC
:104DA000891801600120010400900220099003206D
:104DB000019180040B9088010C900A916846FEF7DF
:104DC0002DFE002801D072B6FEE7002403200F2537
:104DD00015901694179401211495189414A8FEF7B1
:104DE000F3FC002801D072B6FEE70D950F941094E5
:104DF00011940DA81294FEF735FC002801D072B66C
:104E0000FEE719B030BD00000070004070470000A0
:104E100010B50248FFF7CFF810BD000014070020BE
:104E200070B5026801239B07114C124D984203D0C4
:104E3000A04201D0A84203D17026B2434E6832434B
:104E4000984203D0A04201D0A84204D103231B0200
:104E50009A43CB681A4380239A430B691A43026032
:104E60008A68C262096881620121416170BD0000E7
:104E7000000801400014014010B5818CC90707D01B
:104E800001684A6801235B049A43836A1A434A60B3
:104E9000818C890707D501684A6801231B049A435E
:104EA000C36A1A434A60818C490707D501684A687A
:104EB00001239B049A43036B1A434A60818C0907C0
:104EC00007D501684A680123DB039A43436B1A4301
:104ED0004A60818CC90607D50268916801231B03CB
:104EE0009943836B19439160818C890607D50168CA
:104EF0008A6801235B039A43C36B1A438A60818CDF
:104F0000490612D503685A6801210905046C8A43D1
:104F100022435A60026C8A4207D102685168032317
:104F20005B059943436C19435160818C090607D591
:104F300001684A680123DB04806C9A4302434A609B
:104F400010BD0000F8B50446002680300660FEF76C
:104F50006DF8054620680068124F000709D5012149
:104F60002B46002249052046009700F003FA00284E
:104F70000DD12068006840070BD501212B46002287
:104F800089052046009700F0F5F9002801D003209C
:104F9000F8BD2020A067E0672666603426750020F3
:104FA000F8BD0000FFFFFF0110B5806A0022014636
:104FB00040314A834A82FFF7FEF810BD01680A6853
:104FC000FF2321339A430A6001688A68520852001D
:104FD0008A60016E012904D101680A6810239A438E
:104FE0000A602021C167002101664166704770B5E3
:104FF00004464030828BE36F2168222B04D08869FD
:1050000008221043886170BD496A636D11401980A0
:10501000616D891C6165418B491E4183418B00296B
:10502000F1D121680A68FF2321339A430A6021687D
:105030008A68520852008A602021E167002565666F
:10504000216E012904D02046FFF726FB256670BD9E
:1050500021680A6810239A430A60018B2046FFF7F3
:10506000A8F8F3E770B504464030828BE36F2168FF
:10507000222B04D0886908221043886170BD496AD8
:105080001140626D1170616D491C6165418B491E53
:105090004183418B0029F1D121680A68FF23213324
:1050A0009A430A6021688A68520852008A60202167
:1050B000E16700256566216E012904D02046FFF7CF
:1050C000EBFA256670BD21680A6810239A430A60CE
:1050D000018B2046FFF76DF8F3E70000F8B50446B2
:1050E000016880682369E6691843636900253343D2
:1050F0001843724A0B68724E334003430B602168B9
:10510000486803231B039843E368184348602168F9
:10511000A069914201D0236A18438B680B2636029E
:10512000B34303438B606749236867488B420CD1C4
:10513000C0688007800F06D0012839D0022835D0FA
:10514000032821D11EE001271FE060498B420AD1CC
:10515000C0680C21084027D0042829D0082825D071
:105160000C2811D10EE093420ED1C16803208002B9
:10517000014019D001208002091A19D0091A15D04E
:10518000814201D1082700E010274F49504840399B
:105190008600934232D1002F0CD0022F0DD0042F65
:1051A00010D0082F7FD126E00027EEE70227ECE79A
:1051B0000427EAE7FEF7D6FB06E00968C90605D42E
:1051C000304603E0FEF7EEFB002872D06268510023
:1051D0005118814267D81103814264D3010E06023F
:1051E0005008002330185941FAF7F8FF032109024B
:1051F000411A384A55E00120C003E7E70122E3697C
:10520000D20393422BD13B0000F032F90906090C7E
:105210004D114D4D4D274D00FEF7A4FB09E0FEF763
:10522000B1FB06E00968C90605D4304603E0FEF785
:10523000B9FB00283DD0616840004A088018FBF7A0
:105240009BF980B20146244A103991422BD8511C57
:1052500001400007400F084329E01046EBE73B0000
:1052600000F006F90906090C211221212123210051
:10527000FEF778FB0AE0FEF785FB07E00968C90640
:1052800006D4304604E00EE0FEF78CFB002810D078
:1052900061684A081018FBF76FF980B201460E4AA0
:1052A0001039914203D9012503E01046F0E7216847
:1052B000C86000206066A0662846F8BD004800402F
:1052C000F369FFEF00380140401002400044004005
:1052D00000093D00FFFC0F00EFFF000070B54165C5
:1052E000014640310A834A830022426601248368D2
:1052F0002403FF25A34204D10369002B13D11A4BC9
:105300000AE07F26002B09D001252D07AB420CD1E6
:105310000369002B05D03F238B8307E00369002B33
:1053200001D08E8302E08D8300E08A8380210A50C1
:105330002221C16701688B6801252B438B6081683E
:10534000A14202D1016900290BD0084941667421AC
:105350000A5400680168FF222132114301600020D5
:1053600070BD0349F2E70000FF010000655000082E
:10537000EF4F0008FFB581B005460F460446603583
:105380000A9E39E0701C37D0FDF750FE0499401A90
:10539000B04222D8002E20D02068016849072BD5C2
:1053A000C069C043000527D401202168C0020862FB
:1053B00020680168FF22A132914301602068816862
:1053C0004908490081602020A067E06780342060A0
:1053D00000202875032005B0F0BD20680168FF2279
:1053E000A1329143016020688168490849008160C9
:1053F0002020A067E067EBE72068C1693846884352
:1054000005D0002103988142BCD00020E3E70121B0
:10541000F8E7000010B50848FEF7D4FE0648FEF78E
:10542000CBFE2028FAD1012204490348FFF704F9F2
:105430000028F8D110BD00000C0600200500002057
:10544000F8B5040C8BB2264682B25E430D0C1046B2
:10545000370C5843360480190021794116466E43B3
:10546000370C36048019794126466E438919F8BDF8
:1054700030B47446641E2578641CAB4200D21D46CD
:10548000635D5B00E31830BC184700004900CA02A6
:105490000243100000D004204A0D01D00122104325
:1054A000044A490D914201D102210843012800D14B
:1054B00005207047FF0700008307FF22DB0E9A409C
:1054C0008907090E9940002808DB830809489B00DA
:1054D0001B18186890430843186070470007000FB6
:1054E0000838830804489B001B18D8699043084378
:1054F000D861704700E400E000ED00E010B507213E
:10550000024A00200907FBF799FC10BD01030000C7
:10551000034A10B500201107FBF790FC10BD0000F6
:1055200001FDFFFF10B504460868496800F002F865
:10553000206010BDF8B504460D466A4600F040F9FB
:1055400000987E30009000281EDC00221346204682
:10555000294600F07BFC17D0174E00213046002072
:10556000C046074620462946FBF7B6F804463846AB
:105570003040014630460020C046600002D1022083
:10558000FCF7BFFE2046F8BD0098FF280EDB022086
:10559000FCF7B7FE002213462046294600F0BAFC6D
:1055A00002D8FF20C005F8BD0448F8BD20462946B2
:1055B000FBF792F8F8BD000008080000000080FF2B
:1055C00010B504460A460068616800F05FF9616042
:1055D000206010BD30380A2801D201207047002019
:1055E0007047000010B5044688B009A000F024FB05
:1055F00022460AA16846FAF773FE684600F01CFBD3
:1056000009A000F019FB0DA000F016FB08B010BDBA
:1056100054544D3A4543484F2D30000054544D3AB0
:105620004D4F44452D25640054544D3A52454E2D5E
:1056300074657374333132334D00000054544D3A65
:105640004144562D30000000F0B5294C85B0A068CB
:105650000090FBF7C4FA274F05460E46F9680098FC
:10566000081A00D54042FBF7BAFA2A463346FBF740
:1056700071F8214A214B00F04DFC34D9E0680090CC
:10568000FBF7ADFA05460E4639690098081A00D5B1
:105690004042FBF7A4FA2A463346FBF75BF8164A6A
:1056A000164B00F037FC1ED9207801281CD0144975
:1056B0006068884217DB04A9124800F08DFB04469D
:1056C0000D4610490498884210D00F4A0F4B2046CF
:1056D000294600F0EDFB06D90D4A0E4B204629461F
:1056E00000F018FC02D8012005B0F0BD0020FBE757
:1056F00008000020000500209A9999999999C93FBE
:105700000000404098040020B81E85EB51B8AE3F21
:10571000EC51B81E85EBC13F30B500247D25A9B002
:10572000ED0022460FA121A8FAF7DAFD21A800F02A
:1057300007FA2846FDF792FA641C2406240EF0D0DE
:105740000C49488800900B1D0A780BA101A8FAF7B4
:10575000C7FD01A800F0F4F92846FDF77FFA002004
:1057600029B030BD41542B5149434C4F53453D2541
:10577000640D0A002200002041542B51494F50452E
:105780004E3D302C25642C22544350222C2225736C
:10579000222C25640D0A000000B5A1B0044A05A121
:1057A0006846FAF79DFD684600F046FA21B000BD54
:1057B0003800002054544D3A434F4E4E2D2573006F
:1057C00070B51446002222604B000F4A5B089342DA
:1057D00019DA02461A4316D001221205934201DB60
:1057E000226807E03622FBF729FB4B005B083522D5
:1057F000D2432260054D1B0D5B19D2182260044A6A
:105800001140044A891870BD0000F07F02FCFFFFC0
:10581000FFFF0F800000E03F70B50526360700252A
:10582000012240213046FDF7FAFB00241348FDF722
:105830009FF91248FDF78AF82D180A20FDF70EFA95
:10584000641CE4B20A2CF1D3002240213046FDF75B
:10585000E6FB2846FBF7CBF90022094BFAF77AFF63
:10586000FAF73AFFFBF71AFB064A074BFBF7C2F9B8
:105870000122FBF7E3FAFAF72FFF70BDA404002022
:1058800000002440CDCCCCCCCCCC4C3F70B50546F0
:10589000080DC04316460C4640052CD00022134686
:1058A000284600F0D3FA26D0324628462146FBF798
:1058B000C5FA0546080DC0430C46400510D000222D
:1058C0001346284600F0C2FA15D10220FCF719FD54
:1058D000FFF71EFE49004908E20FD207114370BDD1
:1058E0000220FCF70EFDFFF709FE49004908E20F10
:1058F000D207114370BD2846214670BD3EB504460F
:10590000008B062801D201203EBDE069322206212B
:105910006B4607C3A188012001430123A822206808
:10592000FDF7BEFC010005D00020A060E060206112
:1059300008463EBDE0690121415602780902114343
:10594000A16003214156827809021143E1600521DB
:105950004156007909020143002021613EBD10B586
:10596000044601603220A080E26123830A20FDF713
:1059700075F9A188322301222068FDF701FC002877
:105980000BD101220F21204600F015F8002804D188
:10599000E0690078332801D0012010BD9722202132
:1059A000204600F01DF80028F7D188222321204648
:1059B00000F016F810BD3EB5038B934201D20120D2
:1059C0003EBDC3690192322400930294848801226F
:1059D000144313460A4600682146FDF761FC3EBDAC
:1059E00017B583B005AA32240123009202940193D3
:1059F00084880A4600682146FDF7FCFC06B010BD0D
:105A0000FDF7DEFDFFF7B8F9FFF77EF8FFF724F9A1
:105A1000FFF76AF9FFF78CF9FFF73EF8FFF7F0F8A8
:105A2000FFF73CF90623104A10491148FFF797FF8A
:105A3000002801D00FA000E013A000F081F800F0D2
:105A400033F80420FFF7CEFD7D24E4002046FCF768
:105A5000FBFE2046FDF702F910A000F071F8204689
:105A6000FDF7FCF8FBE700001C00002020050020EB
:105A7000000500206C69733364685F696E69742087
:105A80006661696C0D0A00006C69733364685F6954
:105A90006E6974206F6B0D0A0000000072756E69EC
:105AA0006E672E2E2E0D0A0010B5002000F078F93A
:105AB0001448FDF7D3F8012000F072F91248FDF701
:105AC000CDF8002000F07AF97D24E4002046FDF7AF
:105AD000C5F80EA000F034F82046FDF7BFF80DA081
