:020000040800F2
:10000000780D002099010008913D0008793800081A
:1000100000000000000000000000000000000000E0
:10002000000000000000000000000000953D0008F6
:100030000000000000000000933D0008973D00080C
:10004000AB010008AB010008AB010008AB010008E0
:10005000AB010008551C0008AB0100085F1C00083C
:1000600000000000AB010008AB010008AB01000874
:10007000AB010008AB01000800000000AB01000864
:1000800000000000AB0100080000000000000000BC
:10009000AB01000800000000AB010008AB01000844
:1000A000AB010008AB010008AB010008D143000818
:1000B000AB010008E13A0008000000000000000069
:1000C00000F002F800F058F80CA030C808382418E6
:1000D0002D18A246671EAB4654465D46AC4201D180
:1000E00000F04AF87E460F3E0FCCB646012633425A
:1000F00000D0FB1AA246AB46334318470C4C000015
:100100002C4C0000103A02D378C878C1FAD85207B4
:1001100001D330C830C101D504680C6070470000BD
:100120000023002400250026103A01D378C1FBD813
:10013000520700D330C100D50B60704710B5662957
:1001400002D104F0F9FC10BD642902D100F036F9A7
:1001500010BD732902D101F057F910BD002010BD68
:100160001FB501F069F904000020002104F0CEFC65
:10017000E0601FBD10B510BD01F0A0FC1146FFF7F7
:10018000EFFF04F0DBFA01F0B8FC03B4FFF7F2FF75
:1001900003BC01F0FFFC0000074880470748004708
:1001A000FEE7FEE7FEE7FEE7FEE7FEE70448054957
:1001B000054A064B70470000353E0008C1000008A4
:1001C00078070020780D00207809002078090020A9
:1001D000FEB5054610460C46184373D0AE468C4615
:1001E0000020AD1A01469C4167D3664600270124D2
:1001F0003D46B61A9D4102D313463A462124654630
:1002000076462F04360C3E432D0CB61A9D4104D37E
:10021000150C1B042B4312041034654676462F063A
:10022000360A3E432D0AB61A9D4104D3150E1B0211
:100230002B4312020834654676462F0736093E43A3
:100240002D09B61A9D4104D3150F1B012B43120132
:10025000241D65467646AF07B6083E43AD08B61A7C
:100260009D4104D3950F9B002B439200A41C65462F
:100270007646EF0776083E436D08B61A9D411AD3BD
:1002800092185B41641C16E00018764665464941A9
:10029000B71A9D410191009009D36046B11A984167
:1002A0008E468446009801990025401C6941DD076F
:1002B00052082A435B08641EE6D57246634603B0C3
:1002C000F0BDFFE700200146C046C0462A4623464F
:1002D000F5E700000FB41CB5074B06AA7B4469463E
:1002E0000090059801F065F80020694601F074F867
:1002F0001CBC08BC04B01847F9100000F8B50E4645
:100300000446002020622046E1688847002829D062
:10031000252802D06268A16820E0E1682046002715
:10032000884705001ED028464138192802D80127E1
:10033000FF0220353246204627602946FFF7FEFEA1
:10034000002808D0012804D0F61DF608F60008366B
:10035000D9E7361DD7E762682846A1689047206A2A
:10036000401CCFE7206AF8BD70B50C460546012A4F
:1003700005D02878800600D5EA69002302E0012331
:1003800005E05B1C934202D2E05C0028F9D1A86929
:10039000E618C01AA861286AC01828622846C04614
:1003A000C04604E06A682078A968641C9047B4429B
:1003B000F8D32846C046C04670BD0000F7B50025FA
:1003C00075291068009914A611D0C046C0460028AF
:1003D00002DA404211A608E0009909688A0701D5AF
:1003E0000FA602E0490704D50EA6012501E0C0468C
:1003F000C046009F0024243704E001F009F83031A2
:100400003955641C0028F8D12B4632462146009805
:1004100000F068FDFEBD0000000000002D0000009F
:100420002B00000020000000401ECAB24178401C92
:100430008A4202D00029F9D10020704730B5054624
:100440000B462A461C781078521C5B1C002801D0F1
:10045000A042F7D0002C03D0002802D06D1CEFE79B
:10046000284630BD0022CBB20178401C994200D111
:10047000421E0029F8D110467047000030B5441CD8
:1004800003E00178401C00290DD08107F9D10B4B06
:10049000DD0104C8D11A91432940FAD0001B0A0695
:1004A00003D0C01E30BD001B30BD0A0401D0801E29
:1004B00030BD0902FCD0401E30BD00000101010129
:1004C00001E004C0091F0429FBD28B0701D502807B
:1004D000801CC90700D00270704700290BD0C307E9
:1004E00002D00270401C491E022904D3830702D5A2
:1004F0000280801C891EE3E70022EEE70022DFE78E
:10050000F8B507460B4639461943890713D1164CEF
:10051000E601042A0FD302CB0D1B8D43354202D1D5
:1005200002C0121FF5E7CBB20370401C521E002B15
:1005300013D0090AF7E7002A14D01978521E5B1C61
:100540000170401C002908D0002A0BD01978521ED7
:100550005B1C0170401C0029EDD1002A02D011461D
:10056000FFF7CAFF3846F8BD010101010022030967
:100570008B422CD3030A8B4211D300239C464EE0BE
:1005800003460B433CD4002243088B4231D303097A
:100590008B421CD3030A8B4201D394463FE0C3092C
:1005A0008B4201D3CB01C01A524183098B4201D344
:1005B0008B01C01A524143098B4201D34B01C01A2F
:1005C000524103098B4201D30B01C01A5241C308A7
:1005D0008B4201D3CB00C01A524183088B4201D316
:1005E0008B00C01A524143088B4201D34B00C01A02
:1005F0005241411A00D201465241104670475DE017
:10060000CA0F00D04942031000D340425340002299
:100610009C4603098B422DD3030A8B4212D3FC2242
:10062000890112BA030A8B420CD3890192118B42C1
:1006300008D3890192118B4204D389013AD09211D7
:1006400000E08909C3098B4201D3CB01C01A524192
:1006500083098B4201D38B01C01A524143098B425B
:1006600001D34B01C01A524103098B4201D30B0144
:10067000C01A5241C3088B4201D3CB00C01A524169
:1006800083088B4201D38B00C01A5241D9D2430850
:100690008B4201D34B00C01A5241411A00D201468D
:1006A000634652415B10104601D34042002B00D5F7
:1006B0004942704763465B1000D3404201B50020B9
:1006C000C046C04602BD7047704770470246C80F1B
:1006D000C00781434B0030B54B405B009B0D20D0E1
:1006E0001923DB06C91801231B05994220DB0324CB
:1006F000A40704251346AB400BD3002B04D1EB0613
:1007000013409B00E34204D4012464070023121920
:100710005941FF231B0599420BD2C9000143500FD9
:1007200009E0CB0204D501430803024305D0054884
:1007300030BDFF21C905084330BD08460721090522
:10074000884330BD0000C07FF0B5F94D0C091E098B
:100750002C402E402F468BB0A7437DD0B543FCD014
:10076000002E7AD0002CFCD00D465D40ED0F2543C5
:10077000AC1BFF25AD0464190894C502440DC902E1
:100780002143500DDC0204430120C0070143044310
:10079000D2020191200C110C00958C4601042346D5
:1007A0008B430A9161460904E24D8A430991010A8B
:1007B0007D4449198039097805464D4301266D1855
:1007C000F605751B6943C90C640B891C4C436418FE
:1007D000B5012C1B250C2E04B4434C434D43210C76
:1007E000691889090591009DE90701D00121C90710
:1007F00004912C4601996708CD072F434C08059DAD
:10080000E10B4D432D0C29466646754302950D4676
:1008100045432E46029D7D1BB44100950D465D4328
:1008200001942C0C2F040D465543AE462D0C3D4330
:10083000029503947546049C2D04641B049406D20F
:10084000029C039D641C002675410395029401AC33
:1008500070CC009F7D1B01E03EE162E1B4410904E0
:100860000095079101940599A4086143090C0C4671
:100870004443650BE7040C4666467443A646640B86
:100880003C43039502947446049DE4042C1B049499
:1008900006D2029C039D641C0026754103950294B8
:1008A00001AC70CC009F7D1BB44101940C465C43AD
:1008B0000095650FE7000C465443A646640F3C4381
:1008C000039502947446049DE4002C1B049406D204
:1008D000029C039D641C002675410395029401ACA3
:1008E00070CC009F7D1BB441AE09AF06049DC900CA
:1008F000AD092F43049DA406AD060495079D34431E
:1009000069180791059DE10B4D432D0C294666465C
:10091000754302950D4645432E46029D7D1BB4410D
:1009200000950D465D4301942C0C2F040D46554354
:10093000AE462D0C3D43029503947546049C2D0450
:10094000641B049406D2029C039D641C002675411E
:100950000395029401AC70CC009F7D1BB4410194BF
:100960008C050694079C890A611800950791019CE3
:100970000599A4086143090C0D464543680BEF0433
:100980000D46644665436C0B3C43049FED047D1BA0
:10099000AC4602D20025641C6841009E019D371BB5
:1009A00085410846584301950C46460FC5005443FF
:1009B000600F28436546E4002C1B02D20025401C32
:1009C0006E41019D3F1AB5412846BD098006284366
:1009D0008446A009BF064E020699A406761807436E
:1009E000079D002068410A99079019430020099B40
:1009F00000906046FF1913434041E20F64003A4300
:100A0000A4460446D71A8C41A04203D90120009085
:100A100020463A46C70F941840416246D20F2243FF
:100A2000644664000494009CBE466400D71AA44641
:100A3000044602978C417746002F01D1A04204D989
:100A40006046401C8446029A2046C40FA64694186D
:100A50004041049A0546D20F224364466400D31AEB
:100A60008D417146002901D1A84202D928461A4673
:100A7000641C10430122002800D0164361020020AC
:100A8000079B891904465C410223002C02DB4918AC
:100A900013466441089DCE0A2D145D194B05670568
:100AA000E10A2C050D1908993E43C9076940002B3E
:100AB00008D0934006D30022761C5141002B01D16F
:100AC000760876001C4A002D43DB154241D0AA432C
:100AD0003FD030460BB0F0BD06180D464D41174CC7
:100AE0007642AC411AD395181C465C41134A6D42BC
:100AF000A24113D3012252054C00D4420AD15C001A
:100B0000D4420BD04B4002D592021143E2E7490098
:100B10004908DFE75940C90FC90718E00020084914
:100B2000D8E7054801420DD10342F7D0F2E70000B3
:100B30000000FF07B54300000000F07F0000E0FF69
:100B40000000F87F114859400143C0124140002085
:100B5000C0E70123089A9B069A4205DC032252074C
:100B60008918C90FC907B5E7052252078918074A2E
:100B70001143D2125140ADE770B515461C460246EE
:100B80000B4628462146FFF7DFFD70BDFFFFFF7FC4
:100B90001F22030C02D10F22000402D0030E03D047
:100BA00004E00020014670470002083A030F01D11B
:100BB0000001121F830F01D18000921E002801DB6B
:100BC0004000521E120551184205C012411810462D
:100BD0007047C10FC90700D040420122920711435C
:100BE000D6E701218907D3E7F0B58B4C0F092546DD
:100BF00089B0BD437BD01D092646AE43FAD00E46D0
:100C00005E402740F60F3E43254071D0240121422B
:100C1000FBD0FF24AD19A4042D1B039501252D0540
:100C2000DB02DB0AC9022B43C90A29431E01090161
:100C3000040F130F050121431701880B8203914311
:100C40002D098C46A90B1E438A039543B30B9A03C7
:100C500096433F09BA0B9403A74302962E467E4360
:100C60000497B6464E19D7190C460196544305977A
:100C70007E43371B7646BF1B3601B646BE0B361980
:100C800000967646BC043719009C01D3641C00947E
:100C90006400002F01D001263443029E049F754357
:100CA00066467E430496760034196E00341900942B
:100CB000029C019E1C196643751BAE460694654650
:100CC0004519059C05956C43594375460891691A69
:100CD0000191049E01465143A41B0491611A009C9A
:100CE0000791E10605D061090122114302E072E09B
:100CF0006EE06109089D00272C0A2D066918049DE5
:100D00007C412A0A2D066918019D6241AC0DAD0295
:100D10006D185441079A910D920255196141029A3A
:100D2000644658435443069B059A5A43121A131BB0
:100D30009A0E9B015B187A41010B0005C3185141C3
:100D4000220A200644195A419A4200D2491C012025
:100D50004002814203D315230226F64302E0142306
:100D60000326F6432020C51AA9401746AF40DA40B3
:100D70000A4320460399D8400914731819055118DD
:100D8000039A3843D2075140AC4009D00122944025
:100D900006D30022401C5141002C01D140084000E4
:100DA0001E4A934212D3012203989206904207DB17
:100DB0000520400709181A480143C012414004E0C9
:100DC000032040070818C10FC907002009B0F0BD73
:100DD0000020F107FAE705180C464C4111486D4216
:100DE000A04115D394181A465A410E4864429041C6
:100DF0000ED301204A004005824209D35A008242A4
:100E000006D35940C90F084AC90700201143DDE73E
:100E100000200649DAE700000000FF07FE07000097
:100E2000FFFFFF7F0000E0FF0000F07F0000F87F81
:100E300070B505464800440D124B0020002C0AD026
:100E4000634008D09A4206DA6642B24203DD1205D8
:100E50004019514170BD002C08D0002B09D0C90F9A
:100E6000C907002AF6DB084A114370BDC90FC9073C
:100E700070BD28460A03104302D00020034970BD0C
:100E8000284670BDFF0700000000F07F0000F87FDB
:100E90000121C9050123411842001B06D3185B0E2E
:100EA0000AD0C1100722D206891840075242D14207
:100EB00001D5520089187047090208D50146002A59
:100EC00003D0C10FC9070020704710467047420287
:100ED00002D0002002497047072109050143F4E7C9
:100EE0000000F87FFFB504460D4681B02430009025
:100EF0002168880604D51022E0699143216000E052
:100F00000120A84201DD471B00E000270498A169E9
:100F10007A191018081AA0612078C00602D4204659
:100F2000C046C046002608E003986268A168805D5C
:100F30009047206A401C761C206204988642F3DBAE
:100F40002078C0060AD52046C046C04606E0626842
:100F5000A16830209047206A401C206238467F1EDE
:100F60000028F4DC07E000986268A168405D9047C3
:100F7000206A401C206228466D1E0028F3DC2046B3
:100F8000C046C0462078000602D5022005B0F0BD5C
:100F90000120FBE77047FFB50C461E468FB003CA21
:100FA000089009914F007D0D00D16D1E002108466B
:100FB0000020C0460321099A89050840002A03DA67
:100FC0008200801840080840800D01280A9002DD48
:100FD0000020C0430A90089807430DD0EF48F0491D
:100FE000281848430714189800281DD07542291E58
:100FF0001DDD0A9842421BE01898012802D000200B
:10100000302104E00020F24305E02154401CB042AE
:10101000FBDB30460022189B002121540F998B6086
:101020000A60486013B0F0BDBD1B6D1CDFE70A9A73
:10103000002900DA69420BA800F084FA0BAB07CB59
:1010400003AB07C30899099800F0E0FA6B4607C3A1
:101050000146D4480918002D00910ADDD1490398B2
:101060000A9A4942401803A90390684600F0F3FC2D
:1010700007E003990A9A081803A90390684600F04C
:10108000C0FC6B4607C30004000C03D00020C04323
:10109000410800E01046189A002A03D0002200926E
:1010A00015461EE0751E05D400F0CAF930326255AF
:1010B0006D1EF9D501220843079602D000227F1C3D
:1010C00004E02078302801D100227F1E002A0697F4
:1010D00089D01EE0112D07DA00F0B2F930326255E6
:1010E0006D1C02460A43F5D1084303D0009800283E
:1010F00019D00EE00021681E05E0235C625C635499
:101100002254401E491C8142F7DBA81B401E079554
:101110000690079A18990020A0540F98079B069AEA
:1011200081600CC07EE71126002018905BE7D21D7D
:10113000F0B50D460446D10893B0C90003C90C9020
:101140000D9103F081F902460D98C00F01D02D20BA
:1011500007E02068810701D52B2002E04007C00F7F
:101160004001032A0F9001D0072A05DB03462946D8
:10117000204600F0A3F90EE12078800601D5E7694A
:1011800000E006272846652D04D0662814D0672D78
:1011900069D12DE00020112F009001DB112300E028
:1011A0007B1C0CAA03A910A8FFF7F5FE11990026D5
:1011B00010987D1C0E9142E001203B460CAAC0070E
:1011C0000B900120009003A910A8FFF7E4FE119DE9
:1011D00012981099002600280E9501D1781C0D1840
:1011E000781B02D446427D1C761EE81B00903AE034
:1011F000012F00DA01270020112F009001DD1123BB
:1012000000E03B460CAA03A910A8FFF7C4FE119901
:101210003D46109800260E91217809070BD40E99AF
:10122000A94200DA0D4603A9012D04DD4A19203A2E
:10123000D27F302A06D0B84201DA011D04DA01213A
:1012400000910FE06D1EEFE7002802DC86192D1AD1
:1012500003E0411CA94200DD0D46801B401C0090AC
:101260000120C0070B902078000705D40098A84201
:1012700002DB0020C043009069460020C8720B9832
:10128000012102AF0337C907884225D00220109000
:101290002B2011900B9800280BDA40420B902D2048
:1012A000119006E00B9800F0B3F830317F1E0B90E0
:1012B00039701099481E00291090F3DC0B98002813
:1012C000F0D111987F1E38702088000501D5452087
:1012D00000E065207F1E387001A8C01BC01D0B9068
:1012E0000F98002800D0012041190098C017091854
:1012F0000B980818A169081A401EA0612078C00642
:1013000002D42046C046C0460F98002805D0626827
:10131000A1689047206A401C20622078C00625D52D
:101320002046C046C04621E0002E07DB0E98B042A2
:1013300004DD03A86268805DA16802E06268A168BC
:1013400030209047206A761C401C20620098401E86
:10135000002800900AD100F06FF8C0686268016848
:10136000405CA1689047206A401C206228466D1EA0
:101370000028D9DC07E062683878A1687F1C9047B4
:10138000206A401C20620B99481E00290B90F2DC59
:101390002046C046C046032044E6000001FCFFFF93
:1013A000104D0000E1DFFFFF01694A1C026108786F
:1013B000704700B58FB00291002105910549019356
:1013C00079440391114604906846FEF797FF0FB0E9
:1013D00000BD0000E5FFFFFF0A681070521C0A60A4
:1013E000704710B54369002B02D0C046C04601E0EB
:1013F000FEF7BAFF012010BD1278014624310A70B1
:1014000000224A700122ECE711680022D243E8E78B
:1014100001468008081A02091018020A1018020C66
:101420001018C008820012185200891A01E0401CEE
:101430000A390A29FBD27047004870473407002058
:101440000B4670B5024689078008084319469D0877
:10145000141AA94125090807054308092C19484110
:10146000250A01060D43010A2C194141200C0D04E7
:1014700028430D0C00194D41002140194D41C00871
:1014800069070843E908840F8D0025438400241868
:101490004D4124196D41121BAB4107E00925ED4375
:1014A0002C11521963410024401C61411C460A253D
:1014B0000026551BB441F1D270BD0000F8B51F469F
:1014C000044601230068DB02032601461840072A70
:1014D00005DB002801D017A506E017A504E00028C9
:1014E00001D016A500E016A5102081432160A06957
:1014F000C01E002FA06101D0401EA0612046C04642
:10150000C046002F09D038466268A1689047206A1B
:10151000401C2062C01C206206E0206AFAE7626874
:101520002878A1686D1C9047761EF8D22046C046E8
:10153000C046F8BD4E414E006E616E00494E4600F9
:10154000696E6600F7B516468AB02F4878446C4637
:1015500003467C33C06F5A689B680DC42A487844A0
:10156000763003AC0DC80DC43720C00108183721F0
:101570001B30FFF705F805460C46803D1B3C02D5A5
:101580006442012000E00020002709900FE0E007FE
:101590000BD00C201C497843794432464C39411811
:1015A000684600F02EFA6B4607C364107F1C002CBF
:1015B000EDD1154F7F442C3F15E0E80711D02001F5
:1015C000C0190EC80691089307920068F04201D135
:1015D00098190890324606A903A800F012FA03AB46
:1015E00007C36D10641C002DE7D132466946099887
:1015F000002803A802D000F02EFA01E000F001FA62
:101600000A9B07C30DB0F0BD9C36000003464000A6
:101610000A4610B5400D0BD00121C9070F24A402C2
:1016200000191C0364082143540D2143D20207E032
:1016300000210120F2E7D40F490021435200401E4F
:101640000029F8DADB0FDB07184310BDFFB50D46A4
:10165000144685B04868516802F0D0FE00910190B0
:10166000A868A16802F0CAFE02910390A8686168A8
:1016700002F0C4FE029A12188242029201D20120A4
:1016800000E00020019A0B18D2180028019202D025
:101690008A4202D903E08A4201D2012000E0002000
:1016A0000099081800906868A16802F0A7FE029AE5
:1016B00012188242029201D2012000E00020019A19
:1016C0000B18D2180028019202D08A4202D903E0F6
:1016D0008A4201D2012000E0002000990818009001
:1016E0002868216840004900400849084018EE4930
:1016F000471814E001994000C90F08430090019871
:1017000002994000C90F08430190029803994000D4
:10171000C90F08430290039840007F1E0390009871
:101720000028E7DA0898002801D0E04E00E0002603
:10173000B74228DAF71BF806C00E15D0029B20210D
:10174000091A039A8B401A430392029A019BC240E2
:101750008B401A430292019A009BC2408B40009931
:101760001A430192C14000917A110BD06B460320BD
:10177000811A01D5002101E0890059588700401ED7
:10178000D951F5D5374603980299002800D0012099
:10179000014308980291002808460CD0002800D088
:1017A00001200199019A490508430121D20AC90281
:1017B000D202019200E001210E9B0122D207012BEF
:1017C00002D0002B03D013E0002807D116E090428E
:1017D00004D890420CD1019B0B4209D0019B5918AF
:1017E000019105D10099491C009101D17F1C009203
:1017F000002803D0102108460020C0462868216830
:10180000019B009A4840C10F0598C90739430EC093
:1018100009B0F0BDFFB587B0099A089808995368D8
:10182000926840688968964600220393174694465A
:10183000089A12685300099A5B081268520052080D
:101840009A1A9B4BD4180A9A002A01D0352200E03C
:10185000402206920022012315460492DB070593DD
:1018600024E0002D05D175460346039E4D1BB34170
:1018700009D375466646039B491B049D9841059B09
:101880007519AC465F4163463B4308D0059B049EF7
:10189000DD0776082E435B080496059301E0521E8F
:1018A000641EC50FED0749184041521C069B9A4221
:1018B000D7DB002D04D17546039A6B1A824101D201
:1018C00003200CE0039A0B466B404240134303D0C5
:1018D000014303D0012002E0022000E00020614625
:1018E00001910021009702910A99002905D06146D3
:1018F000400201436D4B019102E0800700230290FA
:101900009C423ADA1A1BD006C00E15D0029D202147
:10191000019C091AC5408C402543029C8C4000D094
:1019200001242543019C02953D46C4408D40394623
:101930002C43C1400194009154111DD06D460221E9
:10194000002202290CD10320001B07E0002804DB41
:101950008600AE59002E00D00122401C0328F5DB82
:10196000081B02D588002A5004E080002858104344
:101970008A00A850491EE3D51C460A980028029800
:101980000CD0002800D001200199019A4905084394
:101990000121D20AC902D202019200E00121109B6A
:1019A0000122D207012B02D0002B03D013E0002824
:1019B00007D116E0904204D890420CD1019B0B4213
:1019C00009D0019B5918019105D10099491C00913A
:1019D00001D1641C0092002803D010210846002089
:1019E000C04608980999019A00680968484000991A
:1019F000C30F0798DB0723430360826041600BB08D
:101A0000F0BD1FB5002300920A46014601A8FFF76A
:101A10001DFE01AB07CB04B010BD1FB50123009222
:101A20000A46014601A8FFF711FE01AB0F2407CBC0
:101A3000A402C30F4000DB074008001B002900DBA5
:101A40000020490000054908CC0A204349051843F5
:101A5000D20A1143DFE71FB5002300920A46014670
:101A600001A8FFF7D7FE01AB07CBD4E71FB50123D1
:101A700000920A46014601A8FFF7CCFE01AB0F24F5
:101A800007CBA402C30F4000DB074008001B00295E
:101A900000DB0020490000054908CC0A2043490525
:101AA0001843D20A1143B6E702C0FFFF013C000011
:101AB000FF3F000000487047140700207546FFF7FD
:101AC000F9FFAE46050069465346C008C00085468A
:101AD00018B020B5FEF76AFB60BC00274908B6467F
:101AE0000026C0C5C0C5C0C5C0C5C0C5C0C5C0C52D
:101AF000C0C5403D49008D46704710B50446C046FC
:101B0000C0462046FEF741FB10BD0000024670B5FE
:101B10000A4392072AD11E4DEE0104C808C9541B7E
:101B20009443344017D0D0B2D9B2401A21060143B1
:101B300010D190B299B2401A210401430AD1100287
:101B40001902000A090A401A2102014302D1100EAB
:101B5000190E401A70BD9A42DFD010BA19BA8842E5
:101B600001D9012070BD0020C04370BD02780B7800
:101B7000401C491C002A09D09A4207D102780B78F0
:101B8000401C491C002A01D09A42EFD0D01A70BDE7
:101B90000101010101491820ABBEFEE72600020049
:101BA0007047000038B50446064805490068FEF74E
:101BB000DDFC604300E0401E00900028FBD138BDF2
:101BC00040420F0094000020F8B504460068816888
:101BD0008907890F012902D10168C90722D18168CB
:101BE000114A10261140012500290ED18168294390
:101BF00081600120FFF7D6FF00F0F2FB07460CE002
:101C000000F0EEFBC01B0A2807D9606D3043606509
:101C1000A06D2843A0650120F8BD20680068C0437E
:101C2000C007EDD10020F8BD1700008070B501227B
:101C3000074D064654032146284600F0CAFB3046AD
:101C400000F0FEF900222146284600F0C2FB70BDDC
:101C50000004005010B5012000F0EEFA10BD10B5E0
:101C6000202000F0E9FA10BD72B6FEE710B502219F
:101C7000034800F0A9FB012800D0002010BD00009F
:101C80000004005010B501218903034800F09CFBBB
:101C9000012800D0002010BD00040050F8B5064611
:101CA0000D464036317C01290DD001213174016887
:101CB0008A68520709D5416D2022114341650020F1
:101CC00030740120F8BD0220F8BD174B6A68D805B2
:101CD00047109A42154C8A6A2B6812D05B035B0B43
:101CE0001A438A622968490305D5A1680143A160A6
:101CF0000A20FFF757FF2868800312D5A0683843F1
:101D00000EE05B035B0B9A438A622968490302D5A4
:101D1000A1688143A1602868800302D5A068B84308
:101D2000A06000203074F8BD0110000000270140C1
:101D30000068006C7047000070B5040006D0606D4C
:101D4000264600254036002802D006E0012070BD5E
:101D5000A5653574204600F0D3F8606DC00603D445
:101D600021688868400705D5606D102108436065CB
:101D70003574EBE7606DFF2201329043022210437D
:101D8000606588688207920F5B48012A02D10A6861
:101D9000D2072BD1032362689B079A4205D05B428E
:101DA0009A4202D05B009A4209D10A6992009208D5
:101DB0000A6121680A6963681A430A610CE00A69CA
:101DC000920092080A6181680F2292049143816017
:101DD00081686268114381602168CA6818239A4348
:101DE000CA602168CA68A3681A43CA608168012270
:101DF0005206914381608168A28E52061143816030
:101E000020688168C90004D4816801221207114347
:101E100081602068C168394A1140C1602069E16869
:101E2000022825D000200143204620300278037B81
:101E300052035B001A431143226B1143A2699203C0
:101E40001143E269D20311432268D3681943D16078
:101E5000616A0A46FF3AC23A05D0A26A1143226873
:101E6000D3681943D16042780121012A02D00BE0E6
:101E70000420D8E70078002823D0606D202210438A
:101E80006065A06D0843A065E06B012820681FD045
:101E90000169C90703D00169490849000161206847
:101EA0004169C908C900416120684169A26B1143B9
:101EB0004161A565606D80088000401C6065002060
:101EC00070BD2068C26801231B041A43C260DBE7AF
:101ED0000269FF239B009A43026120680269236C18
:101EE000A66C1A43636C33431A430261206802698B
:101EF0000A430261D3E70000002701401902FEFFF8
:101F000010B586B0044614216846FEF7F7FA0E496C
:101F10002068884215D10D48416B42151143416339
:101F2000C26A02210A43C262C06A084005900120C9
:101F3000009003200190002002906946044800F0C0
:101F400087F906B010BD00000024014000100240D7
:101F50000004005070B504462168002089684907D4
:101F600021D425464035297C01291CD00121297422
:101F7000E169012904D02046FFF726FE002811D18F
:101F8000616D0A4A1140FF2201321143616500214F
:101F9000A165297422681C21116021688A680423C4
:101FA0001A438A6070BD022070BD0000FEF1FFFF81
:101FB00030B5014620314A790023022A04D0042298
:101FC000C2630B71012030BD026814680E25AC435A
:101FD000146002681468640864001460446C1C2275
:101FE000144001221546006CA54045604A71184610
:101FF0000B7130BD70B50024014620314A79022AA8
:1020000003D00421C163012418E0026813680E257F
:10201000AB431360026813685B085B001360436C9A
:102020001C221340012215469D40036C5D604A71DD
:1020300000220A71816B002900D08847204670BDBC
:1020400070B5044600F0CCF90546601C02D0044887
:102050000078241800F0C4F9401BA042FAD370BDE8
:1020600088000020F0B500265C4C5D4DE1B00128F1
:102070002CD0202830D15B480121017014215BA8AD
:10208000FEF73CFA7D23DB0014225BA9564801F0E1
:1020900085FA56490868826908231A4382610868EC
:1020A00081691022114381615BAA51A109A8FEF741
:1020B00011F909A802F0DEFB5BA802F0F3FB00288F
:1020C0000AD001285AD002285CD083E04A4801781F
:1020D000CA0703D0491C017061B0F0BD642901D06A
:1020E000652900D106700178491C01700A20FFF7AC
:1020F000A7FF7D20C000FFF799FDFFF7B7FD3F491F
:1021000008703F4802F098FA02F05CFA2060FFF78E
:10211000B9FD3C4F28703E7002F040FA7D20C000AF
:10212000FFF78EFF38A002F091FC00266420FFF735
:1021300087FF3878002803D1761CF6B21E2EF5D31F
:102140002068FEF7A5FE2E4A264E1369761C0493DE
:10215000304FB41D05ABD0C3D36892686E460FC62E
:1021600026482B7802782C4908A8FEF7B3F808A86F
:1021700002F02EFC29A002F0F9FBADE72AA002F044
:10218000F5FB27E0FFF772FD1C4908701C4802F0C0
:1021900053FA02F017FA2060FFF774FD28700890D8
:1021A0002068FEF775FE164A0E4D13696D1C0493E8
:1021B000184FAC1D05ABB0C3D36892686F460FC70C
:1021C0000E481C49027829A8089BFEF783F829A825
:1021D00002F05CFC034806707EE700000C00002063
:1021E0000800002076000020900600200C06002049
:1021F000424C453A25730A000400002007000020E5
:102200000005002010000020234745545F5245512F
:102210002300000098040020804C000854544D3ADC
:102220004144562D3100000054544D3A4144562D3E
:1022300030000000C44C000810B504494A6902424D
:1022400002D04861FFF70EFF10BD000000040140FE
:10225000FCB500230124A2E027462A469F403A40CD
:102260006FD04D68012D05D0022D03D0112D01D066
:10227000122D16D185680326AC465D00AE46AE40F1
:102280006546B543AC46CE687546AE4065462E43BE
:10229000866046680D79BE43ED06ED0F9D403543DF
:1022A0004560C6685F000325BD40AE46AE43354677
:1022B0008E68BE402E43C6604E68022E01D0122E9C
:1022C00014D1DE08B60036180196366A5D07B446AA
:1022D000EE0E0F25B54000966646AE43B4460D6936
:1022E000009EB54066462E43019D2E6206687546E7
:1022F000AE430D79AD07AD0FBD40354305604D6868
:10230000ED004BD5294D6E6B26436E639E08284D1C
:10231000B6007519AC46AD689E07360F0F27B7405B
:10232000BD4305273F07B84201D1002715E0214FE3
:10233000B84201D1012710E01F4FB84202D1022755
:102340000BE02BE01D4FB84201D1032705E01C4FE5
:10235000B84201D1052700E00627B7402F43654664
:10236000AF60184D2E684F689643FF0300D51643A3
:102370002E606E684F689643BF0300D516436E60AB
:10238000AE684F689643FF0200D51643AE60EE6814
:102390004F689643BF0200D51643EE605B1C0A6887
:1023A0001546DA4000D057E7FCBD0000001002409F
:1023B000000001400004005000080050000C0050D4
:1023C000001C0050000401400069084000D00120BA
:1023D0007047002A01D08161704781627047000018
:1023E00001488068704700008800002070B50246F0
:1023F00040325378202B1CD11378012B19D00123A4
:10240000137024245470046825689D432560046873
:1024100025681E03B5432560046825680D432560C3
:10242000006801681943016020205070002010707E
:1024300070BD022070BD70B5024640325378202B2B
:102440001BD11378012B18D001241470242353704E
:1024500003681D68A5431D6005682B680F263602BA
:10246000B3430902194329600068016821430160F0
:10247000202050700020107070BD022070BD000040
:1024800070B5040006D0254640356878002600283F
:1024900002D005E0012070BD2E70204600F02AFA1F
:1024A00024206870206801684908490001600F21F4
:1024B0006068090688432168086121688A680120EC
:1024C000C00382438A60E1680129A16808D0212203
:1024D0009202114322689160E168022902D005E06E
:1024E0000143F7E701212268C902516021684A6867
:1024F0000F4B1A434A602168CA688243CA60616907
:1025000020690843A169090208432168C860216A5B
:10251000E0690843216808602068016801221143CE
:1025200001606664202068702663AE70002070BD74
:1025300000800002FFB50446002083B025464035E8
:1025400001906A78202A74D122689269D2431204D9
:102550007BD52A78012A78D001222A7024226A7039
:1025600060648F05BF0DE06801280BD00520C00214
:10257000012138188902884321684860FFF730FF3D
:1025800006460CE03248F3E70698401C07D0FFF7F8
:1025900027FF811B0698814219D8002817D021688F
:1025A000886989698006C00FC906C90F0843EBD046
:1025B00020688069069BC043C006009617D500229C
:1025C0002021204601F016FA002830D107E0202013
:1025D0006870616C014361640020287027E0216805
:1025E0002020C86168700020287007B0F0BD00226C
:1025F0002021204601F0FEF9002818D12168102082
:10260000C86121682020C86101990598814214D1D0
:102610002068416801229203114341600096002224
:1026200020212046069B01F0E5F9002802D0012078
:10263000DBE70AE021682020C8610198401C0146C0
:102640000190059881428ED3C1E70220CDE70000BA
:1026500000200002FFB5054604464035687883B087
:10266000202875D10C98002814D00D98002811D07E
:10267000287801286CD001202870FFF7B1FE0746AA
:10268000012200901923D103204601F0B3F900285C
:1026900074D103E00120400260646FE02220687082
:1026A0004020A870002666640C9860620D986085D2
:1026B00066630E980090019704A90EC9204601F0A8
:1026C00025F9002801D02E7058E0618D3448FF298B
:1026D00005D9FF22228501231B06009006E0618DAB
:1026E00021850090208D0123C2B25B06204604990B
:1026F00001F06CF900970022042120460E9B01F0A6
:1027000079F900283AD12068406A616A0870606AE5
:10271000401C6062208D401E81B22185608D401E6C
:102720006085608D00281FD000291DD100970022F0
:10273000802120460E9B01F05DF900281ED1608D9E
:10274000FF2806D9FF22228501231B06009607E0F9
:1027500024E0608D20850096208D0123C2B25B06A7
:102760002046049901F032F9608D0028C2D13A4622
:1027700020460E9901F065F9002802D0012007B02B
:10278000F0BD20682021C16120684268054B1A40D5
:1027900042606970AE702E700020F0E70220EEE714
:1027A0000024008000E800FEFFB5054604464035E1
:1027B000687883B0202872D10C98002814D00D9826
:1027C000002811D02878012869D001202870FFF74F
:1027D00007FE0746012200901923D103204601F08D
:1027E00009F9002871D103E00120400260646CE027
:1027F000212068704020A870002666640C986062F2
:102800000D98608566630E980090019704A90EC923
:10281000204601F0ABF8002801D02E7055E0608D05
:10282000FF2805D9FF22228501231B06009606E01A
:10283000608D20850096208D0123C2B25B06204664
:10284000049901F0C3F83A4620460E9901F01FF9A9
:1028500000283AD1606A216800788862606A401C6A
:102860006062608D401E6085208D401E80B2208594
:10287000618D00291FD000281DD1009700228021E2
:1028800020460E9B01F0B6F800281ED1608DFF286F
:1028900006D9FF22228501231B06009607E024E0CB
:1028A000608D20850096208D0123C2B25B062046F4
:1028B000049901F08BF8608D0028C4D13A46204677
:1028C0000E9901F0BEF8002802D0012007B0F0BD3B
:1028D00020682021C16120684268054B1A4042608F
:1028E0006970AE702E700020F0E70220EEE7000065
:1028F00000E800FE10B586B0044614216846FDF7D6
:10290000FDFD1149206888421BD1104CE16A02206C
:102910000143E162E16A0140032005910002009059
:1029200012200190002002900320039004200490C4
:1029300069460748FFF78CFCA06B01214905084355
:10294000A06306B010BD000000540040001002401B
:102950000004005005480178002901D101210170CF
:1029600003490A6800781018086070478800002042
:102970009000002010B5084800240168402211434F
:102980000160204600F00AF8002801D0012401E08F
:1029900000F026F8204610BD0020024070B5044625
:1029A0000D4D7D202978C000FDF7E0FD01460B4864
:1029B0000068FDF7DBFD00F01FFC002809D1042CA6
:1029C00007D200222146401E00F022F800206C6051
:1029D00070BD012070BD0000880000209400002020
:1029E0000448416B012211434163816B020411438E
:1029F0008163704700100240002805DBC106C90E44
:102A000001208840014908607047000000E100E0B3
:102A100010B501F02FFD10BDF8B504460078002771
:102A2000534D800671D5524E403EB06BC00004D469
:102A3000B06BA9050843B06301274E480168C9057A
:102A400011D40168821511430160FFF7C9FC0090A1
:102A500005E0FFF7C5FC0099401A642837D84548BF
:102A60000068C005F5D532680321090560680A4091
:102A70000140914208D08103890F032904D13168B4
:102A8000890301D50120F8BD2A69032109040A4000
:102A900022D0084090421FD0207880061CD528699B
:102AA0002A6988430121C9040A432A612A698A43A1
:102AB0002A612861C0050FD5FFF792FC009008E05D
:102AC000FFF78EFC0099411A2B48814201D903205F
:102AD000F8BD28698005F3D561688803800F032855
:102AE00005D132680005824301400A4332602869FB
:102AF000032261681204114008432861002F04D0AA
:102B0000B16B012000078143B1632078C00705D075
:102B1000E868A168800880000843E86020788007A2
:102B200005D5E8680C218843E1680843E86020780F
:102B3000400706D5E86803218902884321690843D4
:102B4000E8602078000706D5E86803210903884378
:102B500061690843E8602078000606D5E86803212B
:102B600089048843A1690843E8600020F8BD00009B
:102B7000401002400070004088130000F8B50E4677
:102B8000050038D05E480068C007C00FB04214D2BC
:102B90005B4C20684008400030432060FFF720FC79
:102BA000074605E0FFF71CFCC11B564881427AD856
:102BB0002068C007C00FB042F4D12878524C80077B
:102BC00005D5E068F0218843A9680843E0602878CB
:102BD000C00752D06868022806D0032807D02168B1
:102BE00001280AD0890504E02168890301E02168F1
:102BF0008901002903DB0120F8BD4907F9E7E168F5
:102C0000890889000143E160FFF7EAFB074668682D
:102C100002280AD0032814D001281ED029E0FFF78B
:102C2000DFFBC11B374881423DD8E0680007800FB9
:102C30000228F4D121E0FFF7D3FBC11B31488142C8
:102C400031D8E0680007800F0328F4D115E0FFF7C2
:102C5000C7FBC11B2B48814225D8E0680007800FC5
:102C60000128F4D109E0FFF7BBFBC11B25488142D5
:102C700019D8E0680007800FF5D121480168C9071D
:102C8000C90FB14217D901684908490031430160B1
:102C9000FFF7A6FB074608E005E0FFF7A1FBC11B15
:102CA0001848814201D90320F8BD15480068C007C3
:102CB000C00FB042F1D12878400706D5E06807215F
:102CC00009028843E9680843E0602878000707D5CF
:102CD000E0680721C90288432969C9000843E06008
:102CE00000F03AF8E168094A0906090F515CC8404A
:102CF0000749086007480068FFF750FEF8BD00006C
:102D0000002002408813000000100240484B0008D9
:102D1000940000208C000020044805490068C96820
:102D2000044A4905490F515CC8407047940000208F
:102D300000100240614B0008044805490068C9685A
:102D4000044A8904490F515CC84070479400002030
:102D500000100240614B000870B51A4AD3681A4946
:102D60000C2018408D0004280CD04E00082810D0EC
:102D70000C2810D050680004410F0120C003491CEA
:102D8000884070BD1068C00601D5084670BD284651
:102D900070BD304670BD98020C4C000F205C1B02C9
:102DA0009C0FD368641CDB0301D5314603E0126835
:102DB000D20600D4294601F021FB22460023FDF76C
:102DC00007FA70BD0010024000093D00584B000892
:102DD000FEB505007ED0FE4CE7680C20E668074093
:102DE0000120000406402878C00747D0082F05D0EE
:102DF0000C2F0AD101200004864206D120688003EE
:102E00003CD568680028E5D038E0012069680004F6
:102E1000814203D121680143216011E00523012291
:102E20001B0492049942216802D111432160F1E709
:102E30008143216021680140009120689043206017
:102E4000686800280DD0FFF7CBFA009005E0FFF787
:102E5000C7FA0099401A64287BD820688003F6D509
:102E60000CE0FFF7BDFA009005E0FFF7B9FA009912
:102E7000401A6428F0D820688003F6D428788007A8
:102E800056D50923E868042F0DD00C2F01D1002E50
:102E900009D000283CD02168994301432160FFF705
:102EA0009FFA064628E02168490701D5002891D0FD
:102EB00061681F22120291432A6912021143616064
:102EC0002168994301432160FFF746FFE168090645
:102ED0000A0F00E08BE1BF49895CC840BE49086029
:102EE000BE480068FFF75AFD002873D120E0FFF7C5
:102EF00077FA801B0228AFD820684007F7D56068B2
:102F00001F210902884329690902084360600FE014
:102F10002068400840002060FFF762FA064604E09F
:102F2000FFF75EFA801B022896D820684007F7D486
:102F30002878C00660D5002F0CD0A86900284AD098
:102F40002068FF21013108432060FFF749FA064657
:102F50002EE0C1E02068800502D5A8690028A6D02F
:102F60006068072149038843296A084360606068F4
:102F7000297F0002000A090608436060286A410BA5
:102F80000120C003491C8840E16809060A0F9149E5
:102F9000895CC8409049086090480068FFF7FEFCD3
:102FA000002817D128E0FFF71BFA801B0228A2D8BF
:102FB00020688005F7D56068072149038843296A9E
:102FC000084360606068297F0002000A0906084320
:102FD000606011E0E2E02168FF2001308143216060
:102FE000FFF7FEF9064604E0FFF7FAF9801B022816
:102FF00072D820688005F7D42878794E000724D548
:1030000068690028306910D0012108433061FFF75A
:10301000E7F9009005E0FFF7E3F90099401A02286C
:103020005AD830698007F6D50FE04008400030617B
:10303000FFF7D6F9009005E0FFF7D2F90099401AA2
:10304000022849D830698007F6D42878400766D529
:1030500000200290A06BC00006D4A06B01210907DC
:103060000843A063012002905E480168C90511D49D
:103070000168821511430160FFF7B2F9009005E085
:10308000FFF7AEF90099401A642825D85548006822
:10309000C005F5D5FF20AA680130824203D131690D
:1030A0000143316111E001218902002A07D0052383
:1030B0001B029A4203D132690A433261EFE7326957
:1030C00082433261306988433061A868002810D09B
:1030D000FFF786F9009008E05FE0FFF781F901460D
:1030E0000098091A4048814257D830698005F4D5C4
:1030F0000DE0FFF775F9009006E0FFF771F9009910
:10310000411A3948814248D830698005F5D402987F
:10311000002804D0A06B012109078843A063686AD6
:10312000002866D00C2F3ED00126360602282068E3
:1031300005D0B0432060FFF753F905462FE0B043B8
:103140002060FFF74DF9074604E0FFF749F9C01B7F
:10315000022822D820688001F7D4E96AA86AE268C8
:103160000843296BFD231B049A4311430843E06085
:10317000206830432060FFF733F9054604E0FFF78D
:103180002FF9401B022808D820688001F7D530E0CD
:10319000FFF726F9401B022801D90320FEBD206855
:1031A0008001F5D425E00128F8D0E0680121090468
:1031B000AA6A014091421AD10F218904EA6A0140AA
:1031C000914214D1032189050840296B88420DE002
:1031D00000100240484B0008940000208C000020A2
:1031E00040100240007000408813000001D0012010
:1031F000FEBD0020FEBD0000094910B5401E8842FA
:1032000001D9012010BD074C60610321081F01F0A6
:1032100031F90020A06107202061002010BD0000CE
:10322000FFFFFF0000E000E0704770477047014675
:10323000806FC96F08437047F8B502680446D069CB
:1032400011689668814B05461D402023002D6CD0E7
:10325000F7077F4DFF0FBC460D402F4379D0254621
:10326000C7078035002F06D0CF0504D50127176288
:103270002A683A432A60820708D5F20706D02768F1
:1032800002223A622A6804273A432A60420708D594
:10329000F20706D02668042232622A6802263243E8
:1032A0002A6002070AD50A461A406646324305D00C
:1032B0002668082232622E6816432E60020508D561
:1032C0004A0106D501222668D20232622A681A43D0
:1032D0002A602A68002A30D0800606D5880604D5E0
:1032E000616E002901D020468847286821688968D6
:1032F000490602D42821084225D0204600F03CFE91
:1033000020688168490619D5826840218A43826015
:10331000206F002812D04F498163206FFEF76AFEAC
:1033200000280AD0206F816B06E0850611D58D0636
:103330000FD5616E77E020468847F8BD2046FFF73D
:1033400075FFF8BD05E02046FFF770FF00202860FC
:10335000F7E7256E012D56D1C50654D5CD0652D5B9
:1033600010261662206881682546490640350029E6
:103370002ADA226F116849680904090CE1D02F8B01
:103380008F42DED9698311680968890617D40168FC
:1033900032019143016020688168490849008160D9
:1033A00020688168402291438160E36700202066A5
:1033B00020680168B1430160206FFEF7F9FD288B9A
:1033C000698B401A81B21AE0298B6A8B891A6A8B41
:1033D00089B2002AB5D00029B3D00268FF25213573
:1033E000AA43026020688268520852008260E36744
:1033F00000202066606620680268B24302602046B2
:10340000FFF712FF9DE7C50208D5750206D501201A
:10341000000510622046FFF708FF92E7050605D574
:103420000D0603D5A16E002985D18AE7400688D50F
:10343000480686D5116820464024A1431160836761
:103440000021816600F017FA7BE700000F080000FA
:1034500020010004653F000810B5040003D0A06FF0
:10346000002802D007E0012010BD00217420015582
:10347000204600F027F82420A0672068016849084A
:1034800049000160204600F007FE0128ECD0606A88
:10349000002802D0204600F0CEFC206841680922B6
:1034A000D20291434160206881682A229143816061
:1034B00020680168012211430160204600F020FDD0
:1034C00010BD0000F0B587B0044614216846FDF732
:1034D00015F82D4D266800222C48022103230424D0
:1034E000AE4217D1856B4E0435438563C56A0D43E3
:1034F000C562C06A6D460840059098021FC56946BE
:103500002348FEF7A5FE002203211D20FFF780FAC5
:103510001D201CE01F4F0125BE421CD1446BAE0391
:1035200034434463C46A0C43C462C06A6C460840B6
:103530000590C0200393049223C469461448FEF703
:1035400087FE002203211B20FFF762FA1B20FFF7F2
:1035500053FA07B0F0BD104FBE42FAD1866B012777
:103560007F043E438663C66A2E43C662C06A6E46C7
:10357000C007C00F05900C201FC605206946000734
:10358000FEF766FEE5E7000000480040001002403C
:10359000000400500038014000440040FFB50446DC
:1035A000C06F85B017460E4620287AD1002E0AD06B
:1035B000002F08D0A168C001814207D120690028EE
:1035C00004D1F00702D0012009B0F0BD20466030E0
:1035D0000090007D012864D0009801210175002031
:1035E000802108512221E1672066FEF7F9FE254679
:1035F000403502902F836F830121A0680903FF22C9
:10360000884204D12369002B0CD1274A0AE07F238A
:10361000002809D001221207904219D12269002AFC
:1036200005D03F22AA8303E02769002FFAD0AB839D
:10363000AA8B0192884202D1206900280AD037461D
:1036400000260099002008750198C0B203901AE086
:103650000022E7E70027F4E70898009000222021E5
:103660002046029B00F064FE002801D00320ABE757
:103670002068002F0FD0416A0398014039707F1CE9
:10368000688B401E6883688B0028E5D12020E067A6
:10369000002099E705E0406A019908403080B61C97
:1036A000EEE7022090E70000FF01000030B5C36F95
:1036B000202B27D100290BD0002A09D001248368B0
:1036C0002403A34206D10369002B03D1CB0701D009
:1036D000012030BD034660331C7D012C12D0012433
:1036E0001C7500230366084C0368A34207D05C687E
:1036F000240204D51C680125AD062C431C6000F093
:10370000CBFD30BD022030BD00480040F0B50123A4
:1037100000681B49DB0300225C101A4D884213D15C
:10372000194801880E0406D4184E4F04367803D584
:103730000A2E20D00280F0BD0D2E1ED08B049B0CD3
:10374000134C11E00180F0BD12498842FBD11248B0
:1037500001880E04F7D4114E4F043678E8D40D2EAC
:103760000BD08B040E4C9B0C491C89B2E654018093
:10377000A942DFD8F0BD1943E4E72143E2E70000A6
:1037800000380140FF01000000000020050000207B
:1037900098000020004800400200002006000020A1
:1037A00098020020FFB50446806F83B017460D468F
:1037B00020285ED1002D0AD0002F08D0A168C001BA
:1037C000814207D12069002804D1E80702D00120F6
:1037D00007B0F0BD204660300090007D012848D041
:1037E0000098012101750020802108512120A06747
:1037F000FEF7F6FD2646403601903782778201209B
:10380000A1680003814202D12069002805D02F461B
:10381000002500990020087511E00027F9E7002233
:103820008021204600F084FD002815D1002F15D0FE
:103830002168387888627F1C708A401E7082708A86
:10384000019B002806980090E9D1002240212046E3
:1038500000F06EFD002808D00320B9E72888216811
:10386000C005C00D8862AD1CE6E72020A0670020DF
:10387000AEE70220ACE77047FEE701688A69D243F1
:10388000920701D400228A6200688169C943C9078E
:1038900003D081690122114381617047F7B5044665
:1038A00000680E468069C043C0062BD420272546F9
:1038B000403520688069C043800612D5701CF8D05E
:1038C000FEF78EFD0299401AB04201D8002EF0D1C9
:1038D000606C384360646F700020A870287001200D
:1038E000FEBD21681020C8612068C7612046FFF72F
:1038F000C4FF20684168044A11404160606C0421A3
:103900000843E7E70020FEBD00E800FEF8B50446E6
:10391000164615481D46DAB20090079F0023204640
:1039200000F054F83A462046069900F0B0F8002816
:1039300018D12846F5B2012809D02168300A8862DA
:103940003A462046069900F0A2F800280AD12068DD
:1039500085620097002240212046069B00F04AF82D
:10396000002800D00120F8BD00200080F8B50446F2
:10397000164615481D46DAB2C3020090079F20463E
:1039800000F024F83A462046069900F080F8002816
:1039900018D12846F5B2012809D02168300A88627A
:1039A0003A462046069900F072F800280AD12068AD
:1039B00085620097002280212046069B00F01AF8BD
:1039C000002800D00120F8BD00200080F0B5066876
:1039D000059C7568064F600D384385438805800D4A
:1039E000110408431843204305437560F0BD0000EF
:1039F000FF63FF03F8B51D4617460E46044609E06F
:103A0000681C07D0FEF7ECFC0699401AA8420BD8B8
:103A1000002D09D020688169304688430FD00020EE
:103A2000B842EDD00020F8BD616C202001436164F4
:103A3000403460700020A07020700120F8BD01208B
:103A4000EEE770B516460D4604460FE032462946AD
:103A50002046FFF723FF002801D0012070BDFEF7AC
:103A6000BFFC801BA84208D8002D06D020688069C2
:103A7000C0438006EAD4002070BD616C2020014361
:103A80006164403460700020A0702070E5E770B57C
:103A900016460D46044611E0324629462046FFF7F9
:103AA000FDFE002801D0012070BD681C06D0FEF785
:103AB00097FC801BA84208D8002D06D0206880699A
:103AC000C0438007E8D4002070BD616C2020014312
:103AD0006164403460700020A0702070E3E7000053
:103AE00010B50848FFF7A8FB0648FFF7A0FB202801
:103AF000FAD1012204490348FFF7D8FD0028F8D184
:103B000010BD000088050020060000201CB5002123
:103B100018480091164A01910260C1631205426083
:103B2000816007228263012202610246C160203265
:103B30001170FF235170C2334362816211730163BC
:103B40008161042241634261C161FEF7F5F80028FA
:103B500001D0FEF789F808480090401401906946AA
:103B60000448FEF79BF8002801D0FEF77DF81CBD45
:103B700000240140A404002000010020F0B587B01B
:103B800014216846FCF7BAFC3448C26A80210A4313
:103B9000C262C26A0A400592C16A01242143C1621D
:103BA000C16A21400591C16A02252943C162C06AE8
:103BB0000526284036070590224629463046FEF75E
:103BC00008FC002240213046FEF703FC244F00226F
:103BD00061033846FEF7FDFB012228213846FEF737
:103BE000F8FB204801906946029500943046FEF7A4
:103BF0002FFB42200025694631C1694630460395B6
:103C0000FEF726FB20200090174801906946029499
:103C10003046FEF71DFB1548009001956946029558
:103C20003846FEF715FB1248694631C169463846E9
:103C30000395FEF70DFB002202210520FEF7E8FEAA
:103C40000520FEF7D9FE002201210720FEF7E0FE45
:103C50000720FEF7D1FE07B0F0BD000000100240C3
:103C6000000400500000111000002110024000006C
:103C70002820000010B51348114901601249416025
:103C8000002181600161416181610122C161C260E5
:103C90000162FEF7F5FB002801D0FDF7E5FF0021EA
:103CA0000848FEF7A3FB002801D0FDF7DDFF002147
:103CB0000448FEF7C0FB002801D0FDF7D5FF10BD7A
:103CC0000054004020050020BB7C700010B50E4859
:103CD0000C4901604B21C901416000218160C16034
:103CE000016181610C22016242614162FFF7B4FB14
:103CF000002801D0FDF7B8FF012204490248FFF770
:103D0000D5FC10BD004800408805002006000020BA
:103D100010B50F480D4901604B21C90141600021D8
:103D20008160C16001618161C1610C2201624261F7
:103D30004162FFF791FB002801D0FDF795FF0122BA
:103D400004490348FFF7B2FC10BD000000380140F1
:103D50000C0600200500002010B50C480A4901603F
:103D60004B21C901416000218160C1600161816115
:103D7000C1610C22016242614162FFF76DFB0028C4
:103D800001D0FDF771FF10BD0044004090060020F7
:103D9000FEE77047704710B5FEF7DCFD10BD000070
:103DA00030B599B034216846FCF7A8FB142114A85B
:103DB000FCF7A4FB1C210DA8FCF7A0FB1C48016824
:103DC0000322D2029143C214891801600120010428
:103DD0000090022009900320019180040B9088013B
:103DE0000C900A916846FEF7F3FF002801D072B6E6
:103DF000FEE7002403200F25159016941794012147
:103E00001495189414A8FEF7B9FE002801D072B6D4
:103E1000FEE70D950F94109411940DA81294FEF7DF
:103E2000FBFD002801D072B6FEE719B030BD0000DE
:103E300000700040704710B5818CC90707D0016839
:103E40004A6801235B049A43836A1A434A60818C5F
:103E5000890707D501684A6801231B049A43C36A8E
:103E60001A434A60818C490707D501684A680123D3
:103E70009B049A43036B1A434A60818C090707D558
:103E800001684A680123DB039A43436B1A434A6083
:103E9000818CC90607D50268916801231B039943E9
:103EA000836B19439160818C890607D501688A6804
:103EB00001235B039A43C36B1A438A60818C4906D2
:103EC00012D503685A6801210905046C8A4322430C
:103ED0005A60026C8A4207D10268516803235B056D
:103EE0009943436C19435160818C090607D50168D9
:103EF0004A680123DB04806C9A4302434A6010BD88
:103F0000F8B50446002680300660FEF769FA0546DB
:103F100020680068124F000709D501212B460022B6
:103F200049052046009700F003FA00280DD12068CB
:103F3000006840070BD501212B4600228905204649
:103F4000009700F0F5F9002801D00320F8BD2020EB
:103F5000A067E0672666603426750020F8BD000083
:103F6000FFFFFF0110B5806A0022014640314A83FD
:103F70004A82FFF75BF910BD01680A68FF2321330D
:103F80009A430A6001688A68520852008A60016E8A
:103F9000012904D101680A6810239A430A6020218C
:103FA000C167002101664166704770B50446403024
:103FB000828BE36F2168222B04D08869082210438A
:103FC000886170BD496A636D11401980616D891CFB
:103FD0006165418B491E4183418B0029F1D12168E4
:103FE0000A68FF2321339A430A6021688A685208CD
:103FF00052008A602021E16700256566216E012953
:1040000004D02046FFF782FB256670BD21680A6850
:1040100010239A430A60018B2046FFF705F9F3E766
:1040200070B504464030828BE36F2168222B04D0A8
:10403000886908221043886170BD496A1140626D29
:104040001170616D491C6165418B491E4183418B33
:104050000029F1D121680A68FF2321339A430A60BD
:1040600021688A68520852008A602021E167002591
:104070006566216E012904D02046FFF747FB2566BF
:1040800070BD21680A6810239A430A60018B20469C
:10409000FFF7CAF8F3E70000F8B504460168806846
:1040A0002369E66918436369002533431843724A5C
:1040B0000B68724E334003430B602168486803234A
:1040C0001B039843E368184348602168A069914244
:1040D00001D0236A18438B680B263602B34303438F
:1040E0008B606749236867488B420CD1C0688007A2
:1040F000800F06D0012839D0022835D0032821D1DD
:104100001EE001271FE060498B420AD1C0680C21E4
:10411000084027D0042829D0082825D00C2811D100
:104120000EE093420ED1C16803208002014019D0F5
:1041300001208002091A19D0091A15D0814201D133
:10414000082700E010274F49504840398600934225
:1041500032D1002F0CD0022F0DD0042F10D0082FF9
:104160007FD126E00027EEE70227ECE70427EAE705
:10417000FEF7D2FD06E00968C90605D4304603E023
:10418000FEF7EAFD002872D06268510051188142A2
:1041900067D81103814264D3010E06025008002340
:1041A00030185941FCF714F803210902411A384A22
:1041B00055E00120C003E7E70122E369D2039342FF
:1041C0002BD13B0000F032F90906090C4D114D4D81
:1041D0004D274D00FEF7A0FD09E0FEF7ADFD06E01E
:1041E0000968C90605D4304603E0FEF7B5FD00288E
:1041F0003DD0616840004A088018FCF7B7F980B2EA
:104200000146244A103991422BD8511C0140000725
:10421000400F084329E01046EBE73B0000F006F9A9
:104220000906090C2112212121232100FEF774FD2A
:104230000AE0FEF781FD07E00968C90606D43046AA
:1042400004E00EE0FEF788FD002810D061684A08FF
:104250001018FCF78BF980B201460E4A10399142D2
:1042600003D9012503E01046F0E72168C86000206B
:104270006066A0662846F8BD00480040F369FFEF7D
:1042800000380140401002400044004000093D0059
:10429000FFFC0F00EFFF000070B5416501464031A3
:1042A0000A834A8300224266012483682403FF258F
:1042B000A34204D10369002B13D11A4B0AE07F26D5
:1042C000002B09D001252D07AB420CD10369002B2F
:1042D00005D03F238B8307E00369002B01D08E8339
:1042E00002E08D8300E08A8380210A502221C16789
:1042F00001688B6801252B438B608168A14202D144
:10430000016900290BD00849416674210A540068EC
:104310000168FF22213211430160002070BD034972
:10432000F2E70000FF01000021400008AB3F000859
:10433000FFB581B005460F46044660350A9E39E058
:10434000701C37D0FEF74CF80499401AB04222D8BE
:10435000002E20D02068016849072BD5C069C043D2
:10436000000527D401202168C00208622068016886
:10437000FF22A13291430160206881684908490009
:1043800081602020A067E0678034206000202875CD
:10439000032005B0F0BD20680168FF22A1329143DF
:1043A0000160206881684908490081602020A06779
:1043B000E067EBE72068C1693846884305D00021F3
:1043C00003988142BCD00020E3E70121F8E7000018
:1043D00010B50848FEF730FF0648FEF728FF2028F2
:1043E000FAD1012204490348FFF760F90028F8D107
:1043F00010BD00000C06002005000020F8B5040CDC
:104400008BB2264682B25E430D0C1046370C5843E1
:10441000360480190021794116466E43370C360464
:104420008019794126466E438919F8BD30B4744627
:10443000641E2578641CAB4200D21D46635D5B00A0
:10444000E31830BC184700004900CA0202431000BC
:1044500000D004204A0D01D001221043044A490D26
:10446000914201D102210843012800D10520704763
:10447000FF0700008307FF22DB0E9A408907090E21
:104480009940002808DB830809489B001B1818681E
:1044900090430843186070470007000F08388308EE
:1044A00004489B001B18D86990430843D8617047A3
:1044B00000E400E000ED00E010B5044688B009A07B
:1044C00000F054FA22460AA16846FBF703FF68464B
:1044D00000F04CFA09A000F049FA0DA000F046FAED
:1044E00008B010BD54544D3A4543484F2D3000009C
:1044F00054544D3A4D4F44452D25640054544D3A83
:1045000052454E2D74657374333132334D000000C3
:1045100054544D3A4144562D3000000030B500242B
:104520007D25A9B0ED0022460FA121A8FBF7D2FE00
:1045300021A800F09FF92846FDF782FD641C24069F
:10454000240EF0D00C49488800900B1D0A780BA16E
:1045500001A8FBF7BFFE01A800F08CF92846FDF783
:104560006FFD002029B030BD41542B5149434C4FC1
:1045700053453D25640D0A001800002041542B517D
:10458000494F50454E3D302C25642C225443502237
:104590002C222573222C25640D0A000000B5A1B041
:1045A000044A05A16846FBF795FE684600F0DEF96F
:1045B00021B000BD3600002054544D3A434F4E4EBA
:1045C0002D25730070B505263607002501224021F0
:1045D0003046FDF7FEFE00241348FDF7BBFC1248F1
:1045E000FDF7A6FB2D180A20FDF72AFD641CE4B296
:1045F0000A2CF1D3002240213046FDF7EAFE28467E
:10460000FCF7EFFA0022094BFCF79EF8FCF75EF886
:10461000FCF73EFC064A074BFCF7E6FA0122FCF7E2
:1046200007FCFCF753F870BDA404002000002440F0
:10463000CDCCCCCCCCCC4C3F3EB50446008B062830
:1046400001D201203EBDE069322206216B4607C33C
:10465000A188012001430123A8222068FDF7FAFF69
:10466000010005D00020A060E060206108463EBD4A
:10467000E06901214156027809021143A16003213A
:104680004156827809021143E160052141560079C3
:1046900009020143002021613EBD10B504460160BE
:1046A0003220A080E26123830A20FDF7C9FCA188A3
:1046B000322301222068FDF73DFF00280BD10122A3
:1046C0000F21204600F015F8002804D1E069007899
:1046D000332801D0012010BD97222021204600F070
:1046E0001DF80028F7D188222321204600F016F873
:1046F00010BD3EB5038B934201D201203EBDC3697C
:1047000001923224009302948488012214431346B8
:104710000A4600682146FDF79DFF3EBD17B583B0F0
:1047200005AA3224012300920294019384880A4648
:1047300000682146FEF738F806B010BDFEF71AF9FA
:10474000FFF72EFBFFF71AFAFFF7C0FAFFF7E0FAC0
:10475000FFF702FBFFF7DAF9FFF78CFA0623104A9E
:1047600010491148FFF799FF002801D00FA000E081
:1047700013A000F07FF800F033F80420FFF79CFE50
:104780007D24E4002046FDF751FA6420FDF758FC33
:1047900010A000F06FF82046FDF752FCFBE7000088
:1047A0001100002020050020000500206C697333F3
:1047B00064685F696E6974206661696C0D0A000047
:1047C0006C69733364685F696E6974206F6B0D0A7E
:1047D0000000000072756E696E672E2E2E0D0A00A5
:1047E00010B5002000F076F9FF24F5342046FDF7DF
:1047F00027FC012000F06EF92046FDF721FC002087
:1048000000F076F92046FDF71BFC0DA000F032F811
:1048100064002046FDF714FC0BA000F02BF82046A6
:10482000FDF70EFC08A000F025F82046FDF708FC77
:1048300009A000F01FF82046FDF702FC10BD0000A3
:10484000415445300D0A000041542B5153434C4B09
:104850003D300D0A0000000041542B5149434647AA
:104860003D2264617461666F726D6174222C302C1C
:10487000300D0A0010B5040011D0FBF7FFFD82B225
:104880007D23DB0021460648FEF78CFF04480068C4
:10489000C169C9434906FBD40520FDF7D1FB10BD12
:1048A0000C06002070B5054620A1FBF7C7FD0028C7
:1048B00001D0002070BD21A12846FBF7BFFD0028D4
:1048C00001D0012070BD21A12846FBF7B7FD0028CB
:1048D00001D0022070BD1FA12846FBF7AFFD0028C4
:1048E00001D0032070BD1DA12846FBF7A7FD0028BD
:1048F00001D0042070BD23212846FBF795FD04005C
:1049000011D023212846FBF7ADFD00280BD0154A16
:1049100001211170001B401EC2B2611C1248FBF73E
:10492000EFFD062070BD052070BD000054544D3AC7
:10493000434F4E4E454354454400000054544D3AB5
:10494000444953434F4E4E4543540000434845436A
:104950004B000000535441525400000053544F5038
:10496000000000001000002098040020F8B5074661
:10497000002000F0A1F8C820FDF762FB134C20686E
:1049800081690825294381612068816910263143A6
:1049900081613846FBF772FD82B27D23DB00394628
:1049A0002046FEF7FFFE02E00520FDF749FB2068E8
:1049B000C069C0434006F7D42068816929438161FA
:1049C0002068816931438161F8BD000090060020B4
:1049D00030B5D3B00446FFF7A1FD7D25ED00284694
:1049E000FDF72EFB2046FBF749FD82B223460CA1C2
:1049F0006846FBF76FFC6846FFF73CFF2846FDF76B
:104A00001FFB0D480DA102784BA8FBF763FC4BA8D8
:104A1000FFF730FF2846FDF713FB53B030BD000011
:104A200041542B514953454E443D302C25642C2292
:104A30002573220D0A0000001800002041542B515C
:104A400049434C4F53453D25640D0A0030B5A1B094
:104A5000054600242B46224606A16846FBF73AFC91
:104A60006846FFF783FF641C2406240EF2D021B0B1
:104A700030BD000054544D3A4D41535445522D53CE
:104A8000454E442D2325642C2573000000B5B3B09A
:104A9000024604A16846FBF71DFC6846FFF766FF67
:104AA00033B000BD54544D3A534C4156452D5345F7
:104AB0004E442D2573000000052310B51B07012867
:104AC00005D0002202211846FDF783FC10BD01220B
:104AD000F8E7000010B5054B012805D00022202181
:104AE0001846FDF776FC10BD0122F8E700040050DF
:104AF00010B5054B012805D0002208211846FDF706
:104B000068FC10BD0122F8E70004005010B5002930
:104B10000AD00878002807D005487844FCF7F6FF4B
:104B2000002801D0002010BD0248784410BD0000CC
:104B30000E0200000602000003B4024878448446D6
:104B400003BC6047EFC5FFFF00000000000000004D
:104B50000102030406070809030406080C101820C4
:104B600030000000000102030480807F7E7D7C7B9A
:104B70007A7978777676757473727171706F6E6EFC
:104B80006D6C6C6B6A6A69686867666665646463A5
:104B90006362616160605F5F5E5E5D5D5C5C5B5B2C
:104BA0005A5A59595858575756565555555454539B
:104BB0005352525251515050504F4F4F4E4E4D4DF7
:104BC0004D4C4C4C4B4B4B4A4A4A49494948484842
:104BD0004747474746464645454544444444434382
:104BE0004343424242424141410000000240000032
:104BF000000000A00000000005400000000000C808
:104C0000000000000C4000000000409C000000007C
:104C1000194000000020BCBE00000000344000002D
:104C2000BFC91B8E00000004B5400000504BCFD020
:104C30006607E2CF010000006C4100003E8251AAED
:104C4000DFEEA73401000000D9420000DCB5A0E28D
:104C50003A301F97FFFFFFFFB4450000FD25A0C8B5
:104C6000E9A3C14FFFFFFFFFFF3F000000000080EE
:104C700000000000FF3F0000000000800000000076
:104C8000234E425F34473A25642C57617465723A6B
:104C900025642C566F6C3A25662C583A25642C599D
:104CA0003A25642C5A3A25642C4C6F6E3A25732CA5
:104CB0004C61743A25732C57617465725F503A25C4
:104CC000732300005B494E464F5D4E425F34473AC6
:104CD00025642C57617465723A25642C566F6C3AC2
:104CE00025662C583A25642C593A25642C5A3A25C5
:104CF000642C4C6F6E3A25732C4C61743A25732CDE
:104D000057503A2573000000444D00080000002071
:104D10009800000004010008DC4D00089800002005
:104D2000E00C0000200100081C000000430000000F
:104D3000F8FFFFFF0C0000000E0000000F00000055
:104D40002E00000000000000000000000000000035
:104D50000000000000000000000000000000D02D56
:104D600063706F6C6172642E32362E7463702E63C2
:104D7000706F6C61722E746F700030784241303306
:104D8000343534313531433100000000000000007B
:104D90000000000000000000000000000000000013
:104DA0000000000000000000000000000000000003
:104DB000000000000000000000000032332E394ED9
:104DC000003131332E323045000000000100000078
:0C4DD000040000000000000000002000B3
:04000005080000C12E
:00000001FF
